:100000000C9463000C948B000C948B000C948B006C
:100010000C948B000C948B000C948B000C94D808DF
:100020000C948B000C948B000C948B000C948B0024
:100030000C948B000C948B000C948B000C948B0014
:100040000C948E080C948B000C9480090C945A0923
:100050000C948B000C948B000C948B000C948B00F4
:100060000C948B000C948B000000000024002700EF
:100070002A000000000023002600290000000008DC
:10008000000201000003040700000000000000005F
:10009000010204081020408001020408102001021F
:1000A0000408102000000000250028002B00040494
:1000B0000404040404040202020202020303030310
:1000C00003030200B20911241FBECFEFD8E0DEBF48
:1000D000CDBF22E0A8EAB1E001C01D92AA3AB20762
:1000E000E1F711E0A0E0B1E0E8E3F2E202C0059040
:1000F0000D92A83AB107D9F710E0C3E6D0E004C0EA
:100100002197FE010E94810CC236D107C9F70E94D7
:10011000FC090C941A110C940000833081F028F42F
:10012000813099F08230A9F008958730A9F08830A5
:10013000C9F08430B1F4809180008F7D03C080913C
:1001400080008F7780938000089584B58F7784BD79
:10015000089584B58F7DFBCF8091B0008F77809319
:10016000B00008958091B0008F7DF9CFCF93DF93D9
:10017000282F30E0F901E458FF4F8491F901E0574E
:10018000FF4FD491F901E255FF4FC491CC23A1F068
:1001900081110E948D00EC2FF0E0EE0FFF1FEE5852
:1001A000FF4FA591B491EC91ED2381E090E009F42B
:1001B00080E0DF91CF91089580E090E0FACF1F9327
:1001C000CF93DF93282F30E0F901E458FF4F84915B
:1001D000F901E057FF4FD491F901E255FF4FC49167
:1001E000CC23A9F0162F81110E948D00EC2FF0E096
:1001F000EE0FFF1FEC55FF4FA591B4918FB7F89408
:10020000EC91111108C0D095DE23DC938FBFDF91F4
:10021000CF911F910895DE2BF8CFCF93DF9390E01D
:10022000FC01E057FF4F249182559F4FFC018491C0
:100230008823D1F090E0880F991FFC01E859FF4F07
:10024000A591B491FC01EC55FF4FC591D49161117A
:100250000EC09FB7F8948C91E22FE0958E238C937B
:100260002881E223E8839FBFDF91CF9108958FB764
:10027000F894EC91E22BEC938FBFF6CF3FB7F89454
:100280008091C9019091CA01A091CB01B091CC019C
:1002900026B5A89B05C02F3F19F00196A11DB11DE1
:1002A0003FBFBA2FA92F982F8827BC01CD01620F1D
:1002B000711D811D911D42E0660F771F881F991FD8
:1002C0004A95D1F708958F929F92AF92BF92CF92A5
:1002D000DF92EF92FF920E943E014B015C0184E1AC
:1002E000C82E85E0D82EE12CF12C0E943E01681921
:1002F00079098A099B09683E734081059105A8F335
:1003000021E0C21AD108E108F10888EE880E83E0E6
:10031000981EA11CB11CC114D104E104F10429F7F9
:10032000FF90EF90DF90CF90BF90AF909F908F9015
:1003300008952FB7F8946091C5017091C60180911E
:10034000C7019091C8012FBF08950895AF92BF9241
:10035000CF92DF92EF92FF920F931F93CF93DF9391
:100360006C017B018B01040F151FEB015E01AE18C0
:10037000BF08C017D10759F06991D601ED91FC91E2
:100380000190F081E02DC6010995892B79F7C5010F
:10039000DF91CF911F910F91FF90EF90DF90CF9061
:1003A000BF90AF900895FC01538D448D252F30E010
:1003B000842F90E0821B930B541710F0CF96089572
:1003C00001970895FC01918D828D981761F0A28D9F
:1003D000AE0FBF2FB11D5D968C91928D9F5F9F7365
:1003E000928F90E008958FEF9FEF0895FC01918D1B
:1003F000828D981731F0828DE80FF11D858D90E088
:1004000008958FEF9FEF0895FC01918D228D892F24
:1004100090E0805C9F4F821B91098F73992708950C
:1004200081EF91E00E94040221E0892B09F420E091
:10043000822F089580E090E0892B29F00E9410021D
:1004400081110C9400000895FC01A48DA80FB92F10
:10045000B11DA35ABF4F2C91848D90E001968F73EC
:100460009927848FA689B7892C93A089B1898C910B
:10047000837080648C93938D848D981306C002885A
:10048000F389E02D80818F7D80830895EF92FF9224
:100490000F931F93CF93DF93EC0181E0888F9B8DA7
:1004A0008C8D98131AC0E889F989808185FF15C061
:1004B0009FB7F894EE89FF896083E889F989808184
:1004C0008370806480839FBF81E090E0DF91CF9153
:1004D0001F910F91FF90EF900895F62E0B8D10E075
:1004E0000F5F1F4F0F731127E02E8C8D8E110CC0E4
:1004F0000FB607FCFACFE889F989808185FFF5CF2F
:10050000CE010E942402F1CFEB8DEC0FFD2FF11DE7
:10051000E35AFF4FF0829FB7F8940B8FEA89FB896B
:1005200080818062CFCFCF93DF93EC01888D8823C9
:10053000B9F0AA89BB89E889F9898C9185FD03C046
:10054000808186FD0DC00FB607FCF7CF8C9185FF2B
:10055000F2CF808185FFEDCFCE010E942402E9CF4A
:10056000DF91CF91089590E080E00895FC014481EF
:100570005581608171818EE892E00C94A601CF9341
:10058000DF93FC0101900020E9F73197AF01481B90
:10059000590BBC0181EF91E00E94A601EC0142E001
:1005A00050E065E271E081EF91E00E94A6018C0FBE
:1005B0009D1FDF91CF9108950F931F93CF93DF93EA
:1005C000EC0188819981009759F02A813B81261797
:1005D000370730F081E0DF91CF911F910F9108959F
:1005E0008B016F5F7F4F0E94AC0D009759F099838C
:1005F00088831B830A832C813D81232B59F7FC01BF
:100600001082E8CF80E0E7CFCF93DF93EC018881C1
:100610009981009711F00E94230D198218821D8282
:100620001C821B821A82DF91CF910895FC01808188
:100630009181009711F00C94230D0895EF92FF9291
:100640000F931F93CF93DF93EC017B0119821882E4
:100650001B821A821D821C82FB0101900020E9F797
:1006600031978F01061B170BB8010E94DC02811124
:1006700009C0CE01DF91CF911F910F91FF90EF90B4
:100680000C9404031D830C83B70188819981DF9149
:10069000CF911F910F91FF90EF900C94720ECF931A
:1006A000DF93EC0160E08E810E94DF0061E08E81CB
:1006B0000E94DF0060E08E810E94DF008BE891E005
:1006C0000197F1F7DF91CF910895CF92DF92EF92EA
:1006D000FF920F931F93CF93DF936C017C0187E010
:1006E000E80EF11CD0E0C0E0062F10E0B8010C2E9F
:1006F00002C0759567950A94E2F76170F7018191E0
:100700007F010E94DF002196C430D10579F7C60130
:10071000DF91CF911F910F91FF90EF90DF90CF90DD
:100720000C944F03CF92DF92EF92FF920F931F939F
:10073000CF93DF93EC01F62E642F8C810E94DF00B3
:100740008D818F3F19F060E00E94DF000F2D10E0D7
:100750008F8584FF25C06E0187E0C80ED11CF12C67
:10076000E12CB8010E2C02C0759567950A94E2F74A
:100770006170F60181916F010E94DF00FFEFEF1AB7
:10078000FF0A88E0E816F10461F7CE01DF91CF910E
:100790001F910F91FF90EF90DF90CF900C944F033B
:1007A000B80184E0759567958A95E1F7CE010E94BE
:1007B00065036F2DCE01DF91CF911F910F91FF90B7
:1007C000EF90DF90CF900C94650340E0682F8EE8A7
:1007D00092E00C949203CF93DF93823029F49091AE
:1007E0009D02986090939D028093A1021092A202B4
:1007F00080E48093A30280E18093A40280E580934B
:10080000A50261E0809192020E940D018091930205
:100810008F3F19F061E00E940D0161E08091940228
:100820000E940D01CEE8D2E09E012E583240809108
:100830009D0284FD0BC084E090E0219628173907C3
:1008400044F461E08E810E940D01EECF88E090E0DB
:10085000F4CF8BE39DE00197F1F760E08091920285
:100860000E94DF0060E0809194020E94DF0080918E
:1008700093028F3F19F060E00E94DF0080919D029B
:1008800084FD39C063E08EE892E00E946503CBE40A
:10089000D6E4CE010197F1F763E08EE892E00E9482
:1008A00065032197F1F763E08EE892E00E9465030B
:1008B00083E592E00197F1F762E08EE892E00E9412
:1008C000650380919D0280620E94E50384E080932D
:1008D0009E028CE00E94E50381E00E94E5038BE329
:1008E0009FE10197F1F782E080939F0286E0DF911C
:1008F000CF910C94E50380620E94E5038BE496E4BB
:100900000197F1F780919D0280620E94E50383E5E3
:1009100092E00197F1F780919D0280620E94E503C9
:10092000D0CF643008F063E09091A102691710F015
:100930006FEF690FE62FF0E0E257FD4F9489890FC2
:1009400080680C94E50381E00E94E5038BE39FE15E
:100950000197F1F7089541E00E94920381E090E051
:100960000895EF92FF920F931F93CF93DF9300D0E0
:1009700000D000D0CDB7DEB77C01862F642F0E9457
:1009800091041A8219821C821B821E821D82F70129
:10099000008111810115110569F0E480F580B7012E
:1009A000CE0101960E94DC02811119C0CE01019690
:1009B0000E940403CE0101960E94B602CE01019668
:1009C0000E94160326960FB6F894DEBF0FBECDBF69
:1009D000DF91CF911F910F91FF90EF900895FE82CC
:1009E000ED82B80189819A810E94720EE3CFCF9285
:1009F000DF92EF92FF920F931F93CF93DF93CDB7C8
:100A0000DEB763970FB6F894DEBF0FBECDBF6B01A4
:100A10007C0167E271E0CE010E960E941E03C701C1
:100A2000B6012CE330E040E050E00E945F0C7F9381
:100A30006F933F932F9388E291E09F938F938E0162
:100A40000F5F1F4F1F930F930E94790EB801CE01C5
:100A500008960E941E038E859F850FB6F894DEBF10
:100A60000FBECDBF009709F453C068857985611525
:100A7000710509F44BC0488959892C853D85421779
:100A8000530708F443C00E94720E8C859D859B8B92
:100A90008A8B1D861C86CE0108960E94160360E094
:100AA00085E00E949104198618861B861A861D8689
:100AB0001C860E851F850115110569F0EA88FB88E3
:100AC000B701CE0108960E94DC02811132C0CE012E
:100AD00008960E940403CE0108960E94B602CE0139
:100AE00008960E941603CE010E960E941603639686
:100AF0000FB6F894DEBF0FBECDBFDF91CF911F912F
:100B00000F91FF90EF90DF90CF9008950E94230DFA
:100B1000888599859F878E878A859B85998B888B09
:100B20008C859D859B8B8A8B198618861B861A86D9
:100B3000B0CFFD86EC86B801888599850E94720E3B
:100B4000CACFDF92EF92FF920F931F93CF93DF9361
:100B500000D000D000D0CDB7DEB7FC018091EF010E
:100B60009091F0018230910509F4D3C140F40097CF
:100B7000E9F0019709F467C181E090E0BCC18330DE
:100B8000910509F45BC20497B9F78081853009F4B7
:100B90007EC28630D9F1823079F78091CD018F5FA6
:100BA0008E3109F487C28093CD01E6CF80818330F6
:100BB00009F47DC030F5882309F463C08230E1F682
:100BC00081818530C9F680910001813109F478C0B6
:100BD0008F3FF1F481E180930001E2ECF0E01491A9
:100BE0001F3FB1F0113009F4AEC008F493C01230C9
:100BF00009F4C7C017FD0CC061E081E10E940D013E
:100C00006BC0853041F0863009F0B6CF0E94A30456
:100C100090E080E070C11092E3011092E401109224
:100C2000E5011092E6011092E7011092E80110929E
:100C3000E9011092EA0160E070E0CB010E94F70444
:100C400062E371E0CE0101960E941E0340E060E085
:100C5000CE0101960E94B104CE0101960E941603B6
:100C600067E471E0CE0101960E941E0341E060E05E
:100C7000CE0101960E94B104CE0101960E94160396
:100C8000C7CF8091E3019091E401A091E501B0917B
:100C9000E601CC96A11DB11D8093E3019093E40180
:100CA000A093E501B093E60181E090E002C084E00A
:100CB00090E09093F0018093EF0182E090E01BC1FF
:100CC000E2ECF0E0149117FDA3CF61E081E10E9416
:100CD0000D01112309F477C0123009F08CC0809106
:100CE000B100887F82608093B10089EF8093B30068
:100CF00088EC90E0A0E0B0E08093D7019093D80119
:100D0000A093D901B093DA01809170008260809342
:100D100070007ECF14BC15BC84B5826084BD85B5DF
:100D2000816085BDEFEBF0E0E491F0E0EE0FFF1F96
:100D3000EC55FF4F85919491E1EAF0E0E491E09366
:100D4000D60110E0C2CF10928000109281008091F5
:100D50008100886080938100809181008160809310
:100D60008100EFEBF0E0E491F0E0EE0FFF1FEC55B7
:100D7000FF4F85919491E1EAF0E0E491E093D50191
:100D8000A4CF1092B0001092B1008091B0008260A8
:100D90008093B0008091B10081608093B100EFEB4F
:100DA000F0E0E491F0E0EE0FFF1FEC55FF4F85916E
:100DB00094919093D4018093D301E1EAF0E0E4911F
:100DC000E093D20182CF85B5887F826085BD89EFAF
:100DD00087BD88EC90E0A0E0B0E08093DF019093C5
:100DE000E001A093E101B093E20180916E00826086
:100DF00080936E000DCF1130F1F480918100887FD7
:100E00008160809381008FEC97E0909389008093BC
:100E1000880088EC90E0A0E0B0E08093DB01909344
:100E2000DC01A093DD01B093DE0180916F00826050
:100E300080936F00EDCE123021F01111E9CE8FECCE
:100E4000C7CF8FEC53CF8081833009F441C0D0F4F9
:100E5000882349F1813009F08FCE8091E301909190
:100E6000E401A091E501B091E6018C339105A10563
:100E7000B10508F481CEBC01CD016C537109810923
:100E800091091DC0853021F0853008F0BCCE85C0A9
:100E90006091E3017091E4018091E5019091E60198
:100EA0000E94F704B5CE6091E3017091E401809156
:100EB000E5019091E601645C7F4F8F4F9F4F6093F7
:100EC000E3017093E4018093E5019093E601E8CF9C
:100ED0008091E3019091E401A091E501B091E601D8
:100EE000CC97A105B10508F447CE82E090E090933D
:100EF000F0018093EF0126960FB6F894DEBF0FBE87
:100F0000CDBFDF91CF911F910F91FF90EF90DF90B8
:100F100008958081833009F48EC008F043C0823088
:100F200009F02ACE81818A3009F026CE6091E30152
:100F30007091E4018091E5019091E60161507109A1
:100F4000810991096093E3017093E4018093E501C5
:100F50009093E6010091E7011091E8012091E901E9
:100F60003091EA010F5F1F4F2F4F3F4F0093E70172
:100F70001093E8012093E9013093EA010E94F704FD
:100F80008091E3019091E401A091E501B091E60127
:100F9000892B8A2B8B2B09F03BCE1092F0011092FB
:100FA000EF018BCE8430C9F3863009F0E5CD809116
:100FB000EB019091EC01A091ED01B091EE01409117
:100FC000E7015091E8016091E9017091EA01840F15
:100FD000951FA61FB71F8093EB019093EC01A09380
:100FE000ED01B093EE011092E7011092E80110922A
:100FF000E9011092EA018093CE019093CF01A09372
:10100000D001B093D1018EECE82E81E0F82E10E0F3
:1010100000E0F701D1907F01C8010E94120CD816A0
:1010200021F06D2DC8010E941A0C0F5F1F4F043074
:10103000110579F7EDCD83E090E03BCE80818330E0
:1010400009F453CFC0F4882309F41BCE813009F092
:1010500093CD8091E3019091E401A091E501B091DD
:10106000E6018C339105A105B10508F485CDCC9737
:10107000A109B10911CE853009F006CF66E371E010
:10108000CE0101960E941E0341E065E0F1CD609122
:10109000EB017091EC018091ED019091EE010E94C5
:1010A000F7046CE371E0CE0101960E941E0341E05B
:1010B00061E0DECD1092CD0170CFEF92FF920F93E1
:1010C0001F93CF93DF931F92CDB7DEB7E090EF0170
:1010D000F090F0010E94A1050297C1F40091EF0188
:1010E0001091F00186E08983F092F001E092EF0127
:1010F000CE0101960E94A10585E089831093F0013D
:101100000093EF01CE0101960E94A1050F90DF919F
:10111000CF911F910F91FF90EF9008951F920F9222
:101120000FB60F9211242F933F938F939F93AF93FA
:10113000BF938091C5019091C601A091C701B09164
:10114000C8013091C40123E0230F2D3758F50196D3
:10115000A11DB11D2093C4018093C5019093C601C8
:10116000A093C701B093C8018091C9019091CA01B1
:10117000A091CB01B091CC010196A11DB11D80932E
:10118000C9019093CA01A093CB01B093CC01BF9148
:10119000AF919F918F913F912F910F900FBE0F9024
:1011A0001F90189526E8230F0296A11DB11DD2CFDE
:1011B0001F920F920FB60F9211242F933F934F93CC
:1011C0005F936F937F938F939F93AF93BF93EF93AF
:1011D000FF938091D7019091D801A091D901B0914E
:1011E000DA01892B8A2B8B2BD1F19091D201E091DE
:1011F000D301F091D4018081892780838091D70128
:101200009091D801A091D901B091DA011816190670
:101210001A061B069CF48091D7019091D801A091E9
:10122000D901B091DA010197A109B1098093D701E1
:101230009093D801A093D901B093DA01FF91EF9177
:10124000BF91AF919F918F917F916F915F914F91DE
:101250003F912F910F900FBE0F901F901895809186
:101260000001E2ECF0E0E4919FEF90930001E130A7
:1012700051F030F0E23069F060E00E94DF00DECF34
:1012800010926E00F9CF90916F009D7F90936F0048
:10129000F3CF909170009D7F9093700091E09093B8
:1012A000B0009091B100987F94609093B10010923B
:1012B000B300E2CF1F920F920FB60F9211242F931B
:1012C0003F934F935F936F937F938F939F93AF93CE
:1012D000BF93EF93FF9381EF91E00E942402FF916F
:1012E000EF91BF91AF919F918F917F916F915F919E
:1012F0004F913F912F910F900FBE0F901F90189517
:101300001F920F920FB60F9211242F938F939F93DA
:10131000EF93FF93E0910102F09102028081E0914E
:101320000702F091080282FD1BC0908180910A02A1
:101330008F5F8F7320910B02821741F0E0910A02B8
:10134000F0E0EF50FE4F958F80930A02FF91EF91EE
:101350009F918F912F910F900FBE0F901F90189516
:101360008081F4CFE1EFF1E01382128288EE93E006
:10137000A0E0B0E084839583A683B7838BE091E0FF
:101380009183808385EC90E09587848784EC90E05E
:101390009787868780EC90E0918B808B81EC90E042
:1013A000938B828B82EC90E0958B848B86EC90E023
:1013B000978B868B118E128E138E148EEEE8F2E0D0
:1013C000138212828DE191E09183808385E0848392
:1013D00086E0858387E0868388E0878389E080874D
:1013E0008AE081878BE082871386148615861686AD
:1013F000178681E00C94EB03CF93DF9300D000D0ED
:1014000000D0CDB7DEB7789484B5826084BD84B552
:10141000816084BD85B5826085BD85B5816085BDEF
:1014200080916E00816080936E00109281008091A7
:10143000810082608093810080918100816080932F
:101440008100809180008160809380008091B10054
:1014500084608093B1008091B00081608093B0007F
:1014600080917A00846080937A0080917A00826013
:1014700080937A0080917A00816080937A008091D5
:101480007A00806880937A001092C100E091010296
:10149000F091020282E08083E091FD01F091FE0173
:1014A0001082E091FF01F091000280E180831092B0
:1014B0000902E0910502F091060286E08083E09146
:1014C0000302F0910402808180618083E091030235
:1014D000F0910402808188608083E0910302F091A2
:1014E0000402808180688083E0910302F09104020D
:1014F00080818F7D808382E00E94EB030E94A304A1
:1015000080919F02982F926090939F0286600E9424
:10151000E50360E080E00E94910480919F028E7F4D
:1015200080939F0284600E94E50380919E028D7FDC
:1015300080939E0288600E94E5038CE491E00E9403
:10154000BF0289E691E00E94BF020E94A30460E00E
:1015500080E00E9491046CE771E0CE0101960E9448
:101560001E03CE0101960E94B602CE0101960E9492
:10157000160361E084E00E9491046CE871E0CE0102
:1015800001960E941E03CE0101960E94B602CE0172
:1015900001960E9416030E9463010E94A30460E06A
:1015A00082E00E94910464E971E0CE0101960E94FC
:1015B0001E03CE0101960E94B602CE0101960E9442
:1015C000160361E084E00E94910460EA71E0CE01BC
:1015D00001960E941E03CE0101960E94B602CE0122
:1015E00001960E9416030E9463010E94A30460E01A
:1015F0008EE00E940D0160E08FE00E940D0160E02E
:1016000080E10E940D0161E081E10E940D0185E011
:1016100089831092F0011092EF011092EB01109269
:10162000EC011092ED011092EE0190E080E00E943A
:10163000120C8093CE0181E090E00E94120C809306
:10164000CF0182E090E00E94120C8093D00183E0F1
:1016500090E00E94120C8093D1018091CE01909174
:10166000CF01A091D001B091D1018093EB01909373
:10167000EC01A093ED01B093EE01CE0101960E9422
:10168000A10580E0E82E80E0F82E9924939492E062
:10169000C92ED12C24E0822E33E0732EAA24A394E9
:1016A000B12C52E0652E8091BC0181110CC00E94CA
:1016B00099016093B8017093B9018093BA01909336
:1016C000BB019092BC018EE00E94B600182F8FE003
:1016D0000E94B600082F80E10E94B600912F990F5A
:1016E000990F102F110F192B182B8091AE0181111A
:1016F0000CC00E9499016093AA017093AB01809382
:10170000AC019093AD019092AE018091A8019091AF
:10171000A9018130910509F44CC0D0F1029709F478
:101720006FC00E9499010091B8011091B9012091F8
:10173000BA013091BB01601B710B820B930B6436B5
:10174000710581059105C0F00E9499016093B8016F
:101750007093B9018093BA019093BB016092B60176
:101760008091B7018F5F8B3008F059C08093B7012B
:1017700086EB91E00E945D08E114F10409F493CF37
:101780000E941002882309F48ECF0E9400008BCFA4
:10179000112339F2B092A901A092A8010E949901E7
:1017A0006093AA017093AB018093AC019093AD015B
:1017B000B8CF0E9499012091AA013091AB014091CC
:1017C000AC015091AD01621B730B840B950B62331E
:1017D00071058105910508F4A4CF112361F0D09221
:1017E000A901C092A801143071F41982CE010196AA
:1017F0000E945D0896CF1092A9011092A80191CF86
:1018000011118FCFC7CF123011F49982EFCF113061
:1018100011F47982EBCF163049F78982E7CF9092A5
:10182000B701A6CFF999FECF92BD81BDF89A99274D
:1018300080B50895262FF999FECF1FBA92BD81BDBC
:1018400020BD0FB6F894FA9AF99A0FBE0196089542
:101850002F923F924F925F926F927F928F929F92C0
:10186000AF92BF92CF92DF92EF92FF920F931F93AE
:10187000CF93DF93CDB7DEB7CA1BDB0B0FB6F8945F
:10188000DEBF0FBECDBF09942A88398848885F849F
:101890006E847D848C849B84AA84B984C884DF8010
:1018A000EE80FD800C811B81AA81B981CE0FD11DF4
:1018B0000FB6F894DEBF0FBECDBFED010895A1E2D3
:1018C0001A2EAA1BBB1BFD010DC0AA1FBB1FEE1FBA
:1018D000FF1FA217B307E407F50720F0A21BB30B05
:1018E000E40BF50B661F771F881F991F1A9469F781
:1018F00060957095809590959B01AC01BD01CF01DD
:101900000895EE0FFF1F0590F491E02D09940F93B9
:101910001F93CF93DF938230910510F482E090E023
:10192000E091A802F091A90230E020E0B0E0A0E050
:10193000309799F42115310509F44AC0281B390B59
:1019400024303105D8F58A819B816115710589F1B3
:10195000FB0193838283FE0111C04081518102818A
:10196000138148175907E0F04817590799F4109761
:1019700061F012960C93129713961C933296CF0136
:10198000DF91CF911F910F9108950093A8021093BA
:10199000A902F4CF2115310551F04217530738F051
:1019A000A901DB019A01BD01DF01F801C1CFEF01FF
:1019B000F9CF9093A9028093A802CDCFFE01E20F48
:1019C000F31F819391932250310939832883D7CF14
:1019D0002091A6023091A702232B41F4209103010C
:1019E000309104013093A7022093A60220910101B7
:1019F000309102012115310541F42DB73EB74091D8
:101A0000050150910601241B350BE091A602F091CF
:101A1000A702E217F307A0F42E1B3F0B2817390784
:101A200078F0AC014E5F5F4F2417350748F04E0F3A
:101A30005F1F5093A7024093A602819391939FCF7B
:101A4000F0E0E0E09CCFCF93DF930097E9F0FC015A
:101A5000329713821282A091A802B091A902ED01DF
:101A600030E020E01097A1F420813181820F931F94
:101A70002091A6023091A7022817390709F061C00A
:101A8000F093A702E093A602DF91CF910895EA01B7
:101A9000CE17DF07E8F54A815B819E0141155105AC
:101AA000B1F7E901FB83EA8349915991C40FD51F2E
:101AB000EC17FD0761F4808191810296840F951FD8
:101AC000E90199838883828193819B838A83F0E0F3
:101AD000E0E012968D919C9113970097B9F52D91A6
:101AE0003C911197CD010296820F931F2091A6027F
:101AF0003091A7022817390739F6309751F510921F
:101B0000A9021092A802B093A702A093A602BCCF8C
:101B1000D383C28340815181840F951FC817D90791
:101B200061F44E5F5F4F88819981480F591F51833F
:101B300040838A819B81938382832115310509F03B
:101B4000B0CFF093A902E093A8029ECFFD01DC0183
:101B5000C0CF13821282D7CFB0E0A0E0E2EBFDE06D
:101B60000C942A0C8C01009751F4CB010E94870C35
:101B70008C01C801CDB7DEB7E0E10C94460CFC0146
:101B8000E60FF71F9C0122503109E217F30708F412
:101B90009DC0D901CD91DC911197C617D70798F058
:101BA000C530D10530F3CE0104978617970708F3A7
:101BB000C61BD70B2297C193D1936D937C93CF0112
:101BC0000E94230DD6CF5B01AC1ABD0A4C018C0ECE
:101BD0009D1EA091A802B091A902512C412CF12C7C
:101BE000E12C109731F58091A6029091A7028815FB
:101BF000990509F05CC04616570608F058C0809158
:101C0000010190910201009741F48DB79EB7409178
:101C1000050150910601841B950BE817F90708F0A0
:101C200055C0F093A702E093A602F9017183608387
:101C3000A0CF8D919C91119712966C90129713964C
:101C40007C901397A815B90559F56C0142E0C40EB4
:101C5000D11CCA14DB0420F1AC014A195B09DA017A
:101C60001296159780F06282738251834083D90166
:101C70006D937C93E114F10471F0D7011396FC93FA
:101C8000EE93129776CF22968C0F9D1FF9019183C8
:101C90008083F301EFCFF093A902E093A80269CF0C
:101CA0004816590608F42C017D01D3019ACFCB01C7
:101CB0000E94870C7C01009749F0AE01B8010E9498
:101CC000690EC8010E94230D870153CF10E000E088
:101CD00050CFFB01DC0102C001900D9241505040F9
:101CE000D8F70895FB01DC0101900D920020E1F787
:101CF0000895AEE0B0E0EFE7FEE00C94360C0D89FD
:101D00001E8986E08C831A8309838FEF9FE79E8369
:101D10008D83AE01475E5F4F6F89788DCE0101964E
:101D20000E949C0E2F813885020F131FF80110822C
:101D30002E96E4E00C94520CABE0B0E0E2EAFEE058
:101D40000C94280C7C013B018A01FC01178216824D
:101D5000838181FFC8C1CE0101965C01F7019381A7
:101D6000F30193FD859193FF81913F01882309F44D
:101D700053C1853239F493FD859193FF81913F01E1
:101D8000853229F4B70190E00E948C10E7CF912CA6
:101D9000212C312CFFE1F31538F08B3211F190F446
:101DA000803209F1833229F137FC3CC020ED280F45
:101DB0002A3050F536FE20C08AE0989E200D11246E
:101DC000922E06C08D3291F0803371F7689430F80E
:101DD000F30193FD859193FF81913F018111DACF4A
:101DE00021C0689431F8689432F8F2CF689433F8DF
:101DF000EFCF689434F8ECCFEAE02E9E200D11244A
:101E0000222E689435F8E4CF8E3229F436FC04C1D2
:101E1000689436F8DDCF8C3619F4689437F8D8CF4B
:101E20008836B1F2982F9F7D95549330E0F0833639
:101E3000A1F18337C1F1833509F063C02801F2E0D5
:101E40004F0E511CF801C080D180692D70E036FC26
:101E500002C06FEF7FEFC6010E9476104C016894BC
:101E600037F882010AC00C5F1F4FFFE3F983882413
:101E70008394912C6501E89437F833FE2DC0522CE1
:101E80008114910471F5552009F468CFB70180E2FF
:101E900090E00E948C105A94F6CFF80180818983DB
:101EA0000E5F1F4FE4CF2801F2E04F0E511CF801E6
:101EB000C080D180692D70E036FC02C06FEF7FEFEB
:101EC000C6010E9481104C018201D5CFB70180E28A
:101ED00090E00E948C102A942814190409F0B0F79D
:101EE000CECFF60137FC859137FE81916F01B701A6
:101EF00090E00E948C1051105A94F1E08F1A9108D2
:101F0000BFCF843619F0893609F077C0F80137FE63
:101F10006BC060817181828193810C5F1F4FF32DB3
:101F2000FF763F2E97FF09C090958095709561953B
:101F30007F4F8F4F9F4F689437F82AE030E0A5011C
:101F40000E94BC10C82ECA188C2C432C36FE0CC024
:101F5000E89440F8C91440F434FE05C032FC03C0D4
:101F6000F32DFE7E4F2E892C44FE95C0FE01EC0D14
:101F7000F11D8081803309F087C0242D297E422EF7
:101F8000842D8870582E43FC95C040FE8FC09C2C39
:101F9000821418F42C0C922C981844FE91C0B701AE
:101FA00080E390E00E948C1042FE09C088E790E038
:101FB00041FE02C088E590E0B7010E948C10C91470
:101FC00008F48AC0CA94D12C9FEFC91AD90ACA0C46
:101FD000DB1CF60182916F01B70190E00E948C102A
:101FE000AC14BD04B1F74FCF60817181072E000C96
:101FF000880B990B0E5F1F4F92CFD32CE894D4F827
:102000002AE030E0853739F1232D297FD22E8F3613
:1020100001F148F48835A9F0F701868197812B9664
:10202000E2E10C94440C803749F08837A9F7D4FEDC
:1020300002C06894D2F820E130E00DC06894D4F872
:10204000F6CF34FE03C0822F8660D82E20E132E026
:1020500002C028E030E0F801D7FE0FC06081718136
:10206000828193810C5F1F4FA5010E94BC10C82E76
:10207000CA183D2CE89437F867CF6081718190E0F1
:1020800080E00E5F1F4FF0CF42FC02C0839478CFF8
:102090008394839475CF842D867809F471CFF6CF1D
:1020A000B70180E290E00E948C1083948214C0F308
:1020B000512C73CF522C5818821408F46ECFF8CFDD
:1020C000842D867809F47BCF8BE241FE80E247FCC9
:1020D0008DE2B70190E071CFB70180E390E00E94FC
:1020E0008C109A946CCF8FEF9FEF99CFFC010590E5
:1020F000615070400110D8F7809590958E0F9F1F0A
:102100000895FC016150704001900110D8F780954E
:1021100090958E0F9F1F08950F931F93CF93DF937A
:10212000182F092FEB018B8181FD09C01FEF0FEFE5
:10213000812F902FDF91CF911F910F91089582FFF2
:1021400014C02E813F818C819D81281739073CF472
:10215000E881F981CF0101969983888310838E816C
:102160009F8101969F838E83E3CFE885F985812F38
:102170000995892BA1F3DACFFA01AA27283051F16A
:10218000203181F1E8946F936E7F6E5F7F4F8F4FA8
:102190009F4FAF4FB1E03ED0B4E03CD0670F781F07
:1021A000891F9A1FA11D680F791F8A1F911DA11DEC
:1021B0006A0F711D811D911DA11D20D009F4689425
:1021C0003F912AE0269F11243019305D3193DEF6CD
:1021D000CF010895462F4770405D4193B3E00FD083
:1021E000C9F7F6CF462F4F70405D4A3318F0495D6E
:1021F00031FD4052419302D0A9F7EACFB4E0A69551
:102200009795879577956795BA95C9F70097610572
:10221000710508959B01AC010A2E069457954795C8
:1022200037952795BA95C9F7620F731F841F951FBD
:08223000A01D0895F894FFCFF2
:10223800FF0000AA028000000000004602A601D3A9
:102248000193020402E201F60100000000AB04A6BB
:1022580001B302A5010D0A00253033643A25303256
:1022680064007365740050617573650050726F6423
:102278007563746976652074696D650070726F6442
:102288007563746976652074696D65722061707014
:102298006C69636174696F6E003D3D3D3D3D3D3D38
:1022A8003D3D3D3D3D3D3D3D3D3D3D0050726F64F2
:1022B8007563746976652054696D6500547261634D
:1022C8006B65720044657369676E656420427900C6
:0822D800476175726176000098
:00000001FF
