:100000000C9463000C948B000C948B000C948B006C
:100010000C948B000C948B000C948B000C94AA090C
:100020000C948B000C948B000C948B000C948B0024
:100030000C948B000C948B000C948B000C948B0014
:100040000C9460090C948B000C94520A0C942C0AAA
:100050000C948B000C948B000C948B000C948B00F4
:100060000C948B000C948B000000000024002700EF
:100070002A000000000023002600290000000008DC
:10008000000201000003040700000000000000005F
:10009000010204081020408001020408102001021F
:1000A0000408102000000000250028002B00040494
:1000B0000404040404040202020202020303030310
:1000C00003030200840A11241FBECFEFD8E0DEBF75
:1000D000CDBF23E0AEEFB1E001C01D92A030B2076A
:1000E000E1F711E0A0E0B1E0EAE2F4E202C005903D
:1000F0000D92AE3FB107D9F710E0C3E6D0E004C0DF
:100100002197FE010E947A0DC236D107C9F70E94DD
:10011000CE0A0C9413120C940000833081F028F462
:10012000813099F08230A9F008958730A9F08830A5
:10013000C9F08430B1F4809180008F7D03C080913C
:1001400080008F7780938000089584B58F7784BD79
:10015000089584B58F7DFBCF8091B0008F77809319
:10016000B00008958091B0008F7DF9CFCF93DF93D9
:10017000282F30E0F901E458FF4F8491F901E0574E
:10018000FF4FD491F901E255FF4FC491CC23A1F068
:1001900081110E948D00EC2FF0E0EE0FFF1FEE5852
:1001A000FF4FA591B491EC91ED2381E090E009F42B
:1001B00080E0DF91CF91089580E090E0FACF1F9327
:1001C000CF93DF93282F30E0F901E458FF4F84915B
:1001D000F901E057FF4FD491F901E255FF4FC49167
:1001E000CC23A9F0162F81110E948D00EC2FF0E096
:1001F000EE0FFF1FEC55FF4FA591B4918FB7F89408
:10020000EC91111108C0D095DE23DC938FBFDF91F4
:10021000CF911F910895DE2BF8CFCF93DF9390E01D
:10022000FC01E057FF4F249182559F4FFC018491C0
:100230008823D1F090E0880F991FFC01E859FF4F07
:10024000A591B491FC01EC55FF4FC591D49161117A
:100250000EC09FB7F8948C91E22FE0958E238C937B
:100260002881E223E8839FBFDF91CF9108958FB764
:10027000F894EC91E22BEC938FBFF6CF3FB7F89454
:1002800080911F0290912002A0912102B091220240
:1002900026B5A89B05C02F3F19F00196A11DB11DE1
:1002A0003FBFBA2FA92F982F8827BC01CD01620F1D
:1002B000711D811D911D42E0660F771F881F991FD8
:1002C0004A95D1F708958F929F92AF92BF92CF92A5
:1002D000DF92EF92FF924B015C010E943E016B01A5
:1002E0007C010E943E016C197D098E099F09683EC0
:1002F000734081059105A8F321E0821A9108A108B5
:10030000B10888EEC80E83E0D81EE11CF11C8114F0
:100310009104A104B10429F7FF90EF90DF90CF90F2
:10032000BF90AF909F908F9008952FB7F8946091F1
:100330001B0270911C0280911D0290911E022FBF22
:1003400008950895AF92BF92CF92DF92EF92FF92FD
:100350000F931F93CF93DF936C017B018B01040FED
:10036000151FEB015E01AE18BF08C017D10759F089
:100370006991D601ED91FC910190F081E02DC601CB
:100380000995892B79F7C501DF91CF911F910F91C5
:10039000FF90EF90DF90CF90BF90AF900895FC0159
:1003A000538D448D252F30E0842F90E0821B930BDA
:1003B000541710F0CF96089501970895FC01918D80
:1003C000828D981761F0A28DAE0FBF2FB11D5D9683
:1003D0008C91928D9F5F9F73928F90E008958FEF25
:1003E0009FEF0895FC01918D828D981731F0828DD9
:1003F000E80FF11D858D90E008958FEF9FEF089530
:10040000FC01918D228D892F90E0805C9F4F821B93
:1004100091098F739927089587E492E00E94000262
:1004200021E0892B09F420E0822F089580E090E0FC
:10043000892B29F00E940C0281110C940000089570
:10044000FC01A48DA80FB92FB11DA35ABF4F2C9149
:10045000848D90E001968F739927848FA689B78940
:100460002C93A089B1898C91837080648C93938D37
:10047000848D981306C00288F389E02D80818F7DDA
:1004800080830895EF92FF920F931F93CF93DF9392
:10049000EC0181E0888F9B8D8C8D98131AC0E889C0
:1004A000F989808185FF15C09FB7F894EE89FF898F
:1004B0006083E889F98980818370806480839FBF2D
:1004C00081E090E0DF91CF911F910F91FF90EF902D
:1004D0000895F62E0B8D10E00F5F1F4F0F7311273D
:1004E000E02E8C8D8E110CC00FB607FCFACFE88978
:1004F000F989808185FFF5CFCE010E942002F1CFDE
:10050000EB8DEC0FFD2FF11DE35AFF4FF0829FB7EB
:10051000F8940B8FEA89FB8980818062CFCFCF93DB
:10052000DF93EC01888D8823B9F0AA89BB89E8891B
:10053000F9898C9185FD03C0808186FD0DC00FB6C1
:1005400007FCF7CF8C9185FFF2CF808185FFEDCF3F
:10055000CE010E942002E9CFDF91CF91089590E073
:1005600080E00895FC01448155816081718184EEB1
:1005700092E00C94A201CF93DF9390E080E00E9480
:100580000B0DC3E4D2E0888381E090E00E940B0D64
:10059000898382E090E00E940B0D8A8383E090E0E3
:1005A0000E940B0D8B83CE01DF91CF910895FC014A
:1005B00001900020E9F73197AF01481B590BBC01AE
:1005C00087E492E00C94A201CF93DF930E94D702BC
:1005D000EC0185E291E00E94D7028C0F9D1FDF9114
:1005E000CF910895CF93DF93EC0160E08E810E945C
:1005F000DF0061E08E810E94DF0060E08E810E945A
:10060000DF008BE891E00197F1F7DF91CF9108953A
:10061000CF92DF92EF92FF920F931F93CF93DF93CE
:100620006C017C0187E0E80EF11CD0E0C0E0062FF1
:1006300010E0B8010C2E02C0759567950A94E2F798
:100640006170F70181917F010E94DF002196C43023
:10065000D10579F7C601DF91CF911F910F91FF90DE
:10066000EF90DF90CF900C94F202CF92DF92EF9256
:10067000FF920F931F93CF93DF93EC01F62E642F1D
:100680008C810E94DF008D818F3F19F060E00E9415
:10069000DF000F2D10E08F8584FF25C06E0187E0FD
:1006A000C80ED11CF12CE12CB8010E2C02C075959E
:1006B00067950A94E2F76170F60181916F010E94DB
:1006C000DF00FFEFEF1AFF0A88E0E816F10461F798
:1006D000CE01DF91CF911F910F91FF90EF90DF90AE
:1006E000CF900C94F202B80184E0759567958A95D5
:1006F000E1F7CE010E9408036F2DCE01DF91CF916B
:100700001F910F91FF90EF90DF90CF900C94080312
:1007100040E0682F84EE92E00C943503CF93DF9392
:10072000823029F49091F30298609093F3028093C1
:10073000F7021092F80280E48093F90280E180933E
:10074000FA0280E58093FB0261E08091E8020E945A
:100750000D018091E9028F3F19F061E00E940D01C7
:1007600061E08091EA020E940D01C4EED2E09E0198
:10077000245E32408091F30284FD0BC084E090E05F
:1007800021962817390744F461E08E810E940D01FB
:10079000EECF88E090E0F4CF8BE39DE00197F1F796
:1007A00060E08091E8020E94DF0060E08091EA0250
:1007B0000E94DF008091E9028F3F19F060E00E9403
:1007C000DF008091F30284FD39C063E084EE92E0A3
:1007D0000E940803CBE4D6E4CE010197F1F763E071
:1007E00084EE92E00E9408032197F1F763E084EE23
:1007F00092E00E94080383E592E00197F1F762E03E
:1008000084EE92E00E9408038091F30280620E94CD
:10081000880384E08093F4028CE00E94880381E0E6
:100820000E9488038BE39FE10197F1F782E08093B8
:10083000F50286E0DF91CF910C94880380620E94DC
:1008400088038BE496E40197F1F78091F3028062CC
:100850000E94880383E592E00197F1F78091F3020B
:1008600080620E948803D0CF643008F063E09091EA
:10087000F702691710F06FEF690FE62FF0E0EC5107
:10088000FD4F9489890F80680C94880381E00E9451
:1008900088038BE39FE10197F1F7089541E00E94FF
:1008A000350381E090E008950F931F93CF93DF937A
:1008B000EC0188819981009759F02A813B812617A4
:1008C000370730F081E0DF91CF911F910F910895AC
:1008D0008B016F5F7F4F0E94A50E009759F099839F
:1008E00088831B830A832C813D81232B59F7FC01CC
:1008F0001082E8CF80E0E7CFCF93DF93EC018881CF
:100900009981009711F00E941C0E198218821D8295
:100910001C821B821A82DF91CF910895FC01808195
:100920009181009711F00C941C0E0895EF92FF92A4
:100930000F931F93CF93DF93EC017B0119821882F1
:100940001B821A821D821C82FB0101900020E9F7A4
:1009500031978F01061B170BB8010E9454048111B7
:1009600009C0CE01DF91CF911F910F91FF90EF90C1
:100970000C947C041D830C83B70188819981DF91DD
:10098000CF911F910F91FF90EF900C946B0FEF920E
:10099000FF920F931F93CF93DF9300D000D000D02E
:1009A000CDB7DEB77C01862F642F70E090E00E9407
:1009B00034041A8219821C821B821E821D82F70156
:1009C000008111810115110569F0E480F580B701FE
:1009D000CE0101960E945404811119C0CE010196E6
:1009E0000E947C04CE0101960E94B202CE010196C3
:1009F0000E948E0426960FB6F894DEBF0FBECDBFC0
:100A0000DF91CF911F910F91FF90EF900895FE829B
:100A1000ED82B80189819A810E946B0FE3CFCF925A
:100A2000DF92EF92FF920F931F93CF93DF93CDB797
:100A3000DEB763970FB6F894DEBF0FBECDBF6B0174
:100A40007C0167E271E0CE010E960E949604C70118
:100A5000B6012CE330E040E050E00E94580D7F9357
:100A60006F933F932F9388E291E09F938F938E0132
:100A70000F5F1F4F1F930F930E94720FB801CE019B
:100A800008960E9496048E859F850FB6F894DEBF67
:100A90000FBECDBF009709F455C0688579856115F3
:100AA000710509F44DC0488959892C853D85421747
:100AB000530708F445C00E946B0F8C859D859B8B66
:100AC0008A8B1D861C86CE0108960E948E0470E0DB
:100AD00060E085E090E00E943404198618861B8649
:100AE0001A861D861C860E851F850115110569F065
:100AF000EA88FB88B701CE0108960E945404811150
:100B000032C0CE0108960E947C04CE0108960E9455
:100B1000B202CE0108960E948E04CE010E960E946B
:100B20008E0463960FB6F894DEBF0FBECDBFDF9183
:100B3000CF911F910F91FF90EF90DF90CF9008958C
:100B40000E941C0E888599859F878E878A859B8544
:100B5000998B888B8C859D859B8B8A8B19861886B3
:100B60001B861A86AECFFD86EC86B80188859985EE
:100B70000E946B0FCACFDF92EF92FF920F931F93E9
:100B8000CF93DF9300D000D000D0CDB7DEB7FC010B
:100B900080914102909142028230910509F436C25F
:100BA00040F40097F1F0019709F4B5C181E090E0BD
:100BB0001FC28330910509F40FC30497B9F78081F0
:100BC000863009F436C3873009F4ACC0823071F73F
:100BD000809123028F5F8E3109F43EC380932302FC
:100BE000E5CF8081833009F4B6C098F4882309F4F6
:100BF0009CC08230D9F681818530C1F68091000198
:100C0000813109F4AFC08F3F09F4D6C090E080E095
:100C1000EFC1863009F464C0873009F47FC08530A5
:100C200029F60E94460470E060E081E090E00E94B6
:100C3000340465E471E0CE0101960E949604CE0171
:100C400001960E94B202CE0101960E948E0461E0DC
:100C500070E084E090E00E94340465E571E0CE012C
:100C600001960E949604CE0101960E94B202CE0126
:100C700001960E948E0490E080E00E940B0D882374
:100C800029F060E090E080E00E94130D81E090E0A8
:100C90000E940B0D882329F060E081E090E00E9423
:100CA000130D0E94BB028091430290914402A091D7
:100CB0004502B091460280933D0290933E02A0937C
:100CC0003F02B0934002109242021092410260ED46
:100CD00077E080E090E00E94630182E090E088C1CC
:100CE000109235021092360210923702109238029A
:100CF0001092390210923A0210923B0210923C027A
:100D000060E070E0CB010E940F0562E371E0CE016C
:100D100001960E94960441E064E037C18BE391E0C4
:100D20000E94E4020E94460471CF809135029091A6
:100D30003602A0913702B0913802CC96A11DB11DA8
:100D40008093350290933602A0933702B093380215
:100D500081E090E002C084E090E0909342028093B2
:100D60004102BBCFE2ECF0E0149117FD4FCF61E000
:100D700081E10E940D01112309F48DC0123009F0A8
:100D8000A2C08091B100887F82608093B10089EF1A
:100D90008093B30088EC90E0A0E0B0E0809329025B
:100DA00090932A02A0932B02B0932C0280917000A2
:100DB0008260809370002ACF81E180930001E2EC91
:100DC000F0E014911F3F09F421CF113021F150F0D0
:100DD000123009F43EC017FD19CF61E081E10E9495
:100DE0000D01CCCF14BC15BC84B5826084BD85B523
:100DF000816085BDEFEBF0E0E491F0E0EE0FFF1FC6
:100E0000EC55FF4F85919491E1EAF0E0E491E09395
:100E1000280210E0ACCF10928000109281008091E7
:100E2000810088608093810080918100816080933F
:100E30008100EFEBF0E0E491F0E0EE0FFF1FEC55E6
:100E4000FF4F85919491E1EAF0E0E491E09327026D
:100E50008ECF1092B0001092B1008091B0008260ED
:100E60008093B0008091B10081608093B100EFEB7E
:100E7000F0E0E491F0E0EE0FFF1FEC55FF4F85919D
:100E800094919093260280932502E1EAF0E0E491A8
:100E9000E09324026CCF85B5887F826085BD89EFA1
:100EA00087BD88EC90E0A0E0B0E0809331029093A1
:100EB0003202A0933302B093340280916E008260BC
:100EC00080936E00A3CE1130F1F480918100887F71
:100ED0008160809381008FEC97E0909389008093EC
:100EE000880088EC90E0A0E0B0E080932D02909321
:100EF0002E02A0932F02B093300280916F00826087
:100F000080936F0083CE123021F011117FCE8FECD1
:100F1000C7CF8FEC3DCF8081833009F456C0D0F429
:100F20008823E1F1813009F041CE80913502909122
:100F30003602A0913702B09138028C339105A10599
:100F4000B10508F433CEBC01CD016C5371098109A0
:100F5000910930C0863039F0873009F4E3CE84300F
:100F600009F024CE05C1609135027091360280915E
:100F70003702909138020E940F056DE571E0CE01B5
:100F800001960E94960441E062E0CE0101960E9423
:100F9000C704CE0101960E948E0438CE60913502BE
:100FA000709136028091370290913802645C7F4FD5
:100FB0008F4F9F4F609335027093360280933702B4
:100FC000909338020E940F0521CE809135029091B6
:100FD0003602A0913702B0913802CC97A105B10535
:100FE00008F4E4CD82E090E09093420280934102C5
:100FF00026960FB6F894DEBF0FBECDBFDF91CF911E
:101000001F910F91FF90EF90DF90089580818430C1
:1010100009F4B3C048F4823009F46FC0833009F09A
:10102000C5CD83E090E099CE863009F447C0873083
:1010300009F0BCCD80913D0290913E02A0913F020B
:10104000B09140024091390250913A0260913B02C6
:1010500070913C02840F951FA61FB71F80933D021D
:1010600090933E02A0933F02B09340021092390247
:1010700010923A0210923B0210923C02809343027B
:1010800090934402A0934502B093460283E4E82E75
:1010900082E0F82E10E000E0F701D1907F01C80156
:1010A0000E940B0DD81621F06D2DC8010E94130D62
:1010B0000F5F1F4F0430110579F734CE0E944604AC
:1010C00061E070E081E090E00E9434046AE671E043
:1010D000CE0101960E949604CE0101960E94B202B2
:1010E000CE0101960E948E04609135027091360205
:1010F000809137029091380265CF81818A3009F062
:1011000055CD6091350270913602809137029091F1
:101110003802615071098109910960933502709319
:101120003602809337029093380200913902109171
:101130003A0220913B0230913C020F5F1F4F2F4F2C
:101140003F4F0093390210933A0220933B023093B1
:101150003C020E940F058091350290913602A091C9
:101160003702B0913802892B8A2B8B2B09F04ECD98
:101170001092420210924102B0CD0E94460468E7EC
:1011800071E0CE0101960E94960440E060E0CE013D
:1011900001960E94C704CE0101960E948E0469E860
:1011A00071E0CE0101960E94960441E060E0CE011C
:1011B00001960E94C704CE0101960E948E041092EF
:1011C00042021092410264EC79E080E090E00E94DB
:1011D00063010E94460481CD8081833009F402CFEF
:1011E000C0F4882309F4A1CD813009F0DFCC8091CF
:1011F000350290913602A0913702B09138028C33BB
:101200009105A105B10508F4D1CCCC97A109B1098C
:1012100097CD863009F0A0CE6091350270913602EC
:1012200080913702909138020E940F056AE971E0BF
:101230006ECD60913D0270913E0280913F0290918F
:1012400040020E940F0565E471E0CE0101960E9404
:10125000960441E061E099CE1092230289CFEF928B
:10126000FF920F931F93CF93DF931F92CDB7DEB7FB
:10127000E0904102F09042020E94BB050297C1F447
:10128000009141021091420287E08983F09242026C
:10129000E0924102CE0101960E94BB0586E089835F
:1012A0001093420200934102CE0101960E94BB05B9
:1012B0000F90DF91CF911F910F91FF90EF900895C4
:1012C0001F920F920FB60F9211242F933F938F937B
:1012D0009F93AF93BF9380911B0290911C02A091AA
:1012E0001D02B0911E0230911A0223E0230F2D3708
:1012F00058F50196A11DB11D20931A0280931B027F
:1013000090931C02A0931D02B0931E0280911F02B5
:1013100090912002A0912102B09122020196A11D7C
:10132000B11D80931F0290932002A0932102B093DD
:101330002202BF91AF919F918F913F912F910F907A
:101340000FBE0F901F90189526E8230F0296A11D3F
:10135000B11DD2CF1F920F920FB60F9211242F936F
:101360003F934F935F936F937F938F939F93AF932D
:10137000BF93EF93FF938091290290912A02A0914D
:101380002B02B0912C02892B8A2B8B2BD1F19091BF
:101390002402E0912502F091260280818927808332
:1013A0008091290290912A02A0912B02B0912C02E7
:1013B000181619061A061B069CF4809129029091B2
:1013C0002A02A0912B02B0912C020197A109B10928
:1013D0008093290290932A02A0932B02B0932C02AF
:1013E000FF91EF91BF91AF919F918F917F916F91FD
:1013F0005F914F913F912F910F900FBE0F901F90D3
:10140000189580910001E2ECF0E0E4919FEF909359
:101410000001E13051F030F0E23069F060E00E940C
:10142000DF00DECF10926E00F9CF90916F009D7FAC
:1014300090936F00F3CF909170009D7F9093700018
:1014400091E09093B0009091B100987F9460909358
:10145000B1001092B300E2CF1F920F920FB60F921D
:1014600011242F933F934F935F936F937F938F93A9
:101470009F93AF93BF93EF93FF9387E492E00E9413
:101480002002FF91EF91BF91AF919F918F917F913A
:101490006F915F914F913F912F910F900FBE0F90E1
:1014A0001F9018951F920F920FB60F9211242F9331
:1014B0008F939F93EF93FF93E0915702F09158021F
:1014C0008081E0915D02F0915E0282FD1BC09081FF
:1014D000809160028F5F8F7320916102821741F0CB
:1014E000E0916002F0E0E95BFD4F958F8093600230
:1014F000FF91EF919F918F912F910F900FBE0F90C1
:101500001F9018958081F4CFE7E4F2E013821282F5
:1015100088EE93E0A0E0B0E084839583A683B78350
:101520008BE091E09183808385EC90E095878487C0
:1015300084EC90E09787868780EC90E0918B808B9D
:1015400081EC90E0938B828B82EC90E0958B848B86
:1015500086EC90E0978B868B118E128E138E148EF4
:10156000E4EEF2E0138212828DE191E091838083B8
:1015700085E0848386E0858387E0868388E08783AF
:1015800089E080878AE081878BE0828713861486D2
:1015900015861686178681E00C948E03CF93DF9311
:1015A000CDB7DEB7A2970FB6F894DEBF0FBECDBFA2
:1015B000789484B5826084BD84B5816084BD85B52E
:1015C000826085BD85B5816085BD80916E0081603A
:1015D00080936E00109281008091810082608093E0
:1015E00081008091810081608093810080918000E2
:1015F0008160809380008091B10084608093B1000D
:101600008091B00081608093B00080917A00846006
:1016100080937A0080917A00826080937A00809132
:101620007A00816080937A0080917A00806880934C
:101630007A001092C100E0915702F091580282E0C6
:101640008083E0915302F09154021082E0915502A0
:10165000F091560280E1808310925F02E0915B027C
:10166000F0915C0216E01083E0915902F0915A0269
:10167000808180618083E0915902F0915A028081DB
:1016800088608083E0915902F0915A0280818068DD
:101690008083E0915902F0915A0280818F7D80838E
:1016A00082E00E948E030E9446048091F502982FEA
:1016B00092609093F50286600E94880370E060E07B
:1016C00090E080E00E9434048091F5028E7F809348
:1016D000F50284600E9488038091F4028D7F8093DC
:1016E000F40288600E94880382EA91E00E94E4028A
:1016F0008FEB91E00E94E4020E94460470E060E0FB
:1017000090E080E00E94340462ED71E0CE01019629
:101710000E949604CE0101960E94B202CE0101966B
:101720000E948E0461E070E084E090E00E94340446
:1017300062EE71E0CE0101960E949604CE01019600
:101740000E94B202CE0101960E948E0464E175E00F
:1017500080E090E00E9463010E94460470E060E037
:1017600082E090E00E9434046AEE71E0CE010196BE
:101770000E949604CE0101960E94B202CE0101960B
:101780000E948E0461E070E084E090E00E943404E6
:1017900066EF71E0CE0101960E949604CE0101969B
:1017A0000E94B202CE0101960E948E0464E175E0AF
:1017B00080E090E00E9463010E94460460E08EE0B9
:1017C0000E940D0160E08FE00E940D0160E080E169
:1017D0000E940D0161E081E10E940D0119831092C8
:1017E00042021092410210923D0210923E0210926B
:1017F0003F02109240020E94BB02809143029091EE
:101800004402A0914502B091460280933D0290931C
:101810003E02A0933F02B0934002CE0101960E9487
:10182000BB052AE0422E512C612C712C30E0C32ED6
:1018300030E0D32E11E042E0A42EB12C8824839412
:10184000912C83E0382E92E0292E80911202811192
:101850000CC00E94950160930E0270930F0280935A
:10186000100290931102109312028EE00E94B600B3
:10187000F82E8FE00E94B600E82E80E10E94B600AC
:101880009F2D990F990FFE2CFF0CF92A0F2D082B75
:101890008091040281110CC00E94950160930002A6
:1018A000709301028093020290930302109304024A
:1018B0008091FE019091FF018130910509F46DC086
:1018C00008F459C0029709F48FC00E949501209135
:1018D0000E0230910F024091100250911102621BD2
:1018E000730B840B950B6436710581059105B8F176
:1018F0000E9495019B01AC0120930E0230930F02D0
:10190000409310025093110219A27E01E1E2EE0E03
:10191000F11CCA01B901A30192010E94580D605D3A
:10192000F70162937F01211531054105510589F7C2
:10193000309719F0CF010E94D70285E291E00E9412
:10194000D70220920C0280910D028F5F8B3008F03D
:101950005FC080930D028CE092E00E942F09C114B9
:10196000D10409F472CF0E940C02882309F469CFD4
:101970000E94000066CF002309F4A7CF9092FF01D8
:101980008092FE010E949501609300027093010213
:10199000809302029093030298CF0E9495012091B8
:1019A0000002309101024091020250910302621B39
:1019B000730B840B950B623371058105910508F457
:1019C00084CF002361F0B092FF01A092FE010430A9
:1019D00071F41AA2CE0182960E942F0976CF10923E
:1019E000FF011092FE0171CF01116FCFC7CF0230FE
:1019F00011F41AA3EFCF013011F43AA2EBCF063065
:101A000019F484E08AA3E6CF053021F70AA3E2CFD8
:101A100010930D02A0CFF999FECF92BD81BDF89A27
:101A2000992780B50895262FF999FECF1FBA92BD48
:101A300081BD20BD0FB6F894FA9AF99A0FBE0196AF
:101A400008952F923F924F925F926F927F928F9262
:101A50009F92AF92BF92CF92DF92EF92FF920F933D
:101A60001F93CF93DF93CDB7DEB7CA1BDB0B0FB647
:101A7000F894DEBF0FBECDBF09942A883988488804
:101A80005F846E847D848C849B84AA84B984C8849A
:101A9000DF80EE80FD800C811B81AA81B981CE0F91
:101AA000D11D0FB6F894DEBF0FBECDBFED01089576
:101AB000A1E21A2EAA1BBB1BFD010DC0AA1FBB1F52
:101AC000EE1FFF1FA217B307E407F50720F0A21BC4
:101AD000B30BE40BF50B661F771F881F991F1A9431
:101AE00069F760957095809590959B01AC01BD015B
:101AF000CF010895EE0FFF1F0590F491E02D09949A
:101B00000F931F93CF93DF938230910510F482E0FF
:101B100090E0E091FE02F091FF0230E020E0B0E0C2
:101B2000A0E0309799F42115310509F44AC0281B2B
:101B3000390B24303105D8F58A819B8161157105F7
:101B400089F1FB0193838283FE0111C040815181A1
:101B50000281138148175907E0F04817590799F493
:101B6000109761F012960C93129713961C9332966D
:101B7000CF01DF91CF911F910F9108950093FE0245
:101B80001093FF02F4CF2115310551F0421753078E
:101B900038F0A901DB019A01BD01DF01F801C1CFD5
:101BA000EF01F9CF9093FF028093FE02CDCFFE01AB
:101BB000E20FF31F819391932250310939832883D7
:101BC000D7CF2091FC023091FD02232B41F42091CC
:101BD0000301309104013093FD022093FC02209117
:101BE0000101309102012115310541F42DB73EB7B5
:101BF0004091050150910601241B350BE091FC0238
:101C0000F091FD02E217F307A0F42E1B3F0B2817FB
:101C1000390778F0AC014E5F5F4F2417350748F065
:101C20004E0F5F1F5093FD024093FC0281939193EE
:101C30009FCFF0E0E0E09CCFCF93DF930097E9F0F7
:101C4000FC01329713821282A091FE02B091FF0232
:101C5000ED0130E020E01097A1F420813181820F66
:101C6000931F2091FC023091FD022817390709F0DB
:101C700061C0F093FD02E093FC02DF91CF910895E3
:101C8000EA01CE17DF07E8F54A815B819E01411525
:101C90005105B1F7E901FB83EA8349915991C40FDA
:101CA000D51FEC17FD0761F4808191810296840FA6
:101CB000951FE90199838883828193819B838A831D
:101CC000F0E0E0E012968D919C9113970097B9F5A2
:101CD0002D913C911197CD010296820F931F209177
:101CE000FC023091FD022817390739F6309751F57B
:101CF0001092FF021092FE02B093FD02A093FC022C
:101D0000BCCFD383C28340815181840F951FC817F4
:101D1000D90761F44E5F5F4F88819981480F591F41
:101D2000518340838A819B8193838283211531056E
:101D300009F0B0CFF093FF02E093FE029ECFFD01C9
:101D4000DC01C0CF13821282D7CFB0E0A0E0EBEA73
:101D5000FEE00C94230D8C01009751F4CB010E94FE
:101D6000800D8C01C801CDB7DEB7E0E10C943F0DCA
:101D7000FC01E60FF71F9C0122503109E217F3071F
:101D800008F49DC0D901CD91DC911197C617D707F2
:101D900098F0C530D10530F3CE0104978617970728
:101DA00008F3C61BD70B2297C193D1936D937C93F5
:101DB000CF010E941C0ED6CF5B01AC1ABD0A4C01AC
:101DC0008C0E9D1EA091FE02B091FF02512C412C61
:101DD000F12CE12C109731F58091FC029091FD02DD
:101DE0008815990509F05CC04616570608F058C0DA
:101DF0008091010190910201009741F48DB79EB747
:101E00004091050150910601841B950BE817F907D5
:101E100008F055C0F093FD02E093FC02F9017183D4
:101E20006083A0CF8D919C91119712966C90129720
:101E300013967C901397A815B90559F56C0142E0EB
:101E4000C40ED11CCA14DB0420F1AC014A195B0991
:101E5000DA011296159780F0628273825183408373
:101E6000D9016D937C93E114F10471F0D7011396BD
:101E7000FC93EE93129776CF22968C0F9D1FF9015B
:101E800091838083F301EFCFF093FF02E093FE0292
:101E900069CF4816590608F42C017D01D3019ACF69
:101EA000CB010E94800D7C01009749F0AE01B80182
:101EB0000E94620FC8010E941C0E870153CF10E0E0
:101EC00000E050CFFB01DC0102C001900D924150B7
:101ED0005040D8F70895FB01DC0101900D920020DD
:101EE000E1F70895AEE0B0E0E8E7FFE00C942F0DD5
:101EF0000D891E8986E08C831A8309838FEF9FE703
:101F00009E838D83AE01475E5F4F6F89788DCE01D2
:101F100001960E94950F2F813885020F131FF8013B
:101F200010822E96E4E00C944B0DABE0B0E0EBE9B0
:101F3000FFE00C94210D7C013B018A01FC0117821A
:101F40001682838181FFC8C1CE0101965C01F70131
:101F50009381F30193FD859193FF81913F01882344
:101F600009F453C1853239F493FD859193FF819132
:101F70003F01853229F4B70190E00E948511E7CF37
:101F8000912C212C312CFFE1F31538F08B3211F11B
:101F900090F4803209F1833229F137FC3CC020ED06
:101FA000280F2A3050F536FE20C08AE0989E200D7A
:101FB0001124922E06C08D3291F0803371F768940F
:101FC00030F8F30193FD859193FF81913F018111D9
:101FD000DACF21C0689431F8689432F8F2CF68946F
:101FE00033F8EFCF689434F8ECCFEAE02E9E200D62
:101FF0001124222E689435F8E4CF8E3229F436FC71
:1020000004C1689436F8DDCF8C3619F4689437F83B
:10201000D8CF8836B1F2982F9F7D95549330E0F059
:102020008336A1F18337C1F1833509F063C02801FC
:10203000F2E04F0E511CF801C080D180692D70E094
:1020400036FC02C06FEF7FEFC6010E946F114C019A
:10205000689437F882010AC00C5F1F4FFFE3F983D1
:1020600088248394912C6501E89437F833FE2DC0C1
:10207000522C8114910471F5552009F468CFB701F1
:1020800080E290E00E9485115A94F6CFF801808199
:1020900089830E5F1F4FE4CF2801F2E04F0E511CE1
:1020A000F801C080D180692D70E036FC02C06FEF6E
:1020B0007FEFC6010E947A114C018201D5CFB70192
:1020C00080E290E00E9485112A942814190409F0F6
:1020D000B0F7CECFF60137FC859137FE81916F01C5
:1020E000B70190E00E94851151105A94F1E08F1AC7
:1020F0009108BFCF843619F0893609F077C0F8010E
:1021000037FE6BC060817181828193810C5F1F4FAC
:10211000F32DFF763F2E97FF09C09095809570951F
:1021200061957F4F8F4F9F4F689437F82AE030E0DA
:10213000A5010E94B511C82ECA188C2C432C36FE5E
:102140000CC0E89440F8C91440F434FE05C032FCD9
:1021500003C0F32DFE7E4F2E892C44FE95C0FE0158
:10216000EC0DF11D8081803309F087C0242D297E7C
:10217000422E842D8870582E43FC95C040FE8FC09F
:102180009C2C821418F42C0C922C981844FE91C0AC
:10219000B70180E390E00E94851142FE09C088E704
:1021A00090E041FE02C088E590E0B7010E948511F1
:1021B000C91408F48AC0CA94D12C9FEFC91AD90A4D
:1021C000CA0CDB1CF60182916F01B70190E00E94FE
:1021D0008511AC14BD04B1F74FCF60817181072E1A
:1021E000000C880B990B0E5F1F4F92CFD32CE894F5
:1021F000D4F82AE030E0853739F1232D297FD22E1B
:102200008F3601F148F48835A9F0F701868197816E
:102210002B96E2E10C943D0D803749F08837A9F701
:10222000D4FE02C06894D2F820E130E00DC068947A
:10223000D4F8F6CF34FE03C0822F8660D82E20E17A
:1022400032E002C028E030E0F801D7FE0FC0608124
:102250007181828193810C5F1F4FA5010E94B5118E
:10226000C82ECA183D2CE89437F867CF6081718179
:1022700090E080E00E5F1F4FF0CF42FC02C08394DD
:1022800078CF8394839475CF842D867809F471CFA9
:10229000F6CFB70180E290E00E948511839482140A
:1022A000C0F3512C73CF522C5818821408F46ECFFF
:1022B000F8CF842D867809F47BCF8BE241FE80E253
:1022C00047FC8DE2B70190E071CFB70180E390E069
:1022D0000E9485119A946CCF8FEF9FEF99CFFC01EC
:1022E0000590615070400110D8F7809590958E0F41
:1022F0009F1F0895FC016150704001900110D8F7B4
:10230000809590958E0F9F1F08950F931F93CF93E5
:10231000DF93182F092FEB018B8181FD09C01FEF7F
:102320000FEF812F902FDF91CF911F910F91089583
:1023300082FF14C02E813F818C819D81281739072F
:102340003CF4E881F981CF01019699838883108359
:102350008E819F8101969F838E83E3CFE885F985E7
:10236000812F0995892BA1F3DACFFA01AA2728300A
:1023700051F1203181F1E8946F936E7F6E5F7F4F52
:102380008F4F9F4FAF4FB1E03ED0B4E03CD0670FCE
:10239000781F891F9A1FA11D680F791F8A1F911D21
:1023A000A11D6A0F711D811D911DA11D20D009F471
:1023B00068943F912AE0269F11243019305D3193B3
:1023C000DEF6CF010895462F4770405D4193B3E09C
:1023D0000FD0C9F7F6CF462F4F70405D4A3318F043
:1023E000495D31FD4052419302D0A9F7EACFB4E0F4
:1023F000A6959795879577956795BA95C9F70097AC
:102400006105710508959B01AC010A2E069457954C
:10241000479537952795BA95C9F7620F731F841FA3
:0A242000951FA01D0895F894FFCF4A
:10242A00FF000000038000000000004202A201CF6A
:10243A00018F020002DE01F201000000004E04A238
:10244A0001AF02A1010D0A00253033643A2530326A
:10245A0064005374616E646279210049646C655F3B
:10246A00657869740050726F647563746976652063
:10247A0074696D6500457261736564210053657402
:10248A002050726F2054696D6500436F756E7469D0
:10249A006E6720646F776E00436F756E74646F7732
:1024AA006E2041626F7274210050726F2074696DE0
:1024BA00652073746F7265642E005061757365646C
:1024CA00210070726F647563746976652074696D32
:1024DA006572206170706C69636174696F6E003D2A
:1024EA003D3D3D3D3D3D3D3D3D3D3D3D3D3D3D3D12
:1024FA003D0050726F647563746976652054696D26
:10250A006500547261636B65720044657369676E36
:0E251A006564204279004761757261760000A9
:00000001FF
