:100000000C9463000C948B000C948B000C948B006C
:100010000C948B000C948B000C948B000C947F0937
:100020000C948B000C948B000C948B000C948B0024
:100030000C948B000C948B000C948B000C948B0014
:100040000C9435090C948B000C94270A0C94010A2B
:100050000C948B000C948B000C948B000C948B00F4
:100060000C948B000C948B000000000024002700EF
:100070002A000000000023002600290000000008DC
:10008000000201000003040700000000000000005F
:10009000010204081020408001020408102001021F
:1000A0000408102000000000250028002B00040494
:1000B0000404040404040202020202020303030310
:1000C00003030200590A11241FBECFEFD8E0DEBFA0
:1000D000CDBF22E0AEEEB1E001C01D92A03FB2075D
:1000E000E1F711E0A0E0B1E0E4EDF3E202C0059039
:1000F0000D92AE3EB107D9F710E0C3E6D0E004C0E0
:100100002197FE010E944F0DC236D107C9F70E9408
:10011000A30A0C94E8110C940000833081F028F4B9
:10012000813099F08230A9F008958730A9F08830A5
:10013000C9F08430B1F4809180008F7D03C080913C
:1001400080008F7780938000089584B58F7784BD79
:10015000089584B58F7DFBCF8091B0008F77809319
:10016000B00008958091B0008F7DF9CFCF93DF93D9
:10017000282F30E0F901E458FF4F8491F901E0574E
:10018000FF4FD491F901E255FF4FC491CC23A1F068
:1001900081110E948D00EC2FF0E0EE0FFF1FEE5852
:1001A000FF4FA591B491EC91ED2381E090E009F42B
:1001B00080E0DF91CF91089580E090E0FACF1F9327
:1001C000CF93DF93282F30E0F901E458FF4F84915B
:1001D000F901E057FF4FD491F901E255FF4FC49167
:1001E000CC23A9F0162F81110E948D00EC2FF0E096
:1001F000EE0FFF1FEC55FF4FA591B4918FB7F89408
:10020000EC91111108C0D095DE23DC938FBFDF91F4
:10021000CF911F910895DE2BF8CFCF93DF9390E01D
:10022000FC01E057FF4F249182559F4FFC018491C0
:100230008823D1F090E0880F991FFC01E859FF4F07
:10024000A591B491FC01EC55FF4FC591D49161117A
:100250000EC09FB7F8948C91E22FE0958E238C937B
:100260002881E223E8839FBFDF91CF9108958FB764
:10027000F894EC91E22BEC938FBFF6CF3FB7F89454
:1002800080910F0290911002A0911102B091120280
:1002900026B5A89B05C02F3F19F00196A11DB11DE1
:1002A0003FBFBA2FA92F982F8827BC01CD01620F1D
:1002B000711D811D911D42E0660F771F881F991FD8
:1002C0004A95D1F708958F929F92AF92BF92CF92A5
:1002D000DF92EF92FF924B015C010E943E016B01A5
:1002E0007C010E943E016C197D098E099F09683EC0
:1002F000734081059105A8F321E0821A9108A108B5
:10030000B10888EEC80E83E0D81EE11CF11C8114F0
:100310009104A104B10429F7FF90EF90DF90CF90F2
:10032000BF90AF909F908F9008952FB7F8946091F1
:100330000B0270910C0280910D0290910E022FBF62
:1003400008950895AF92BF92CF92DF92EF92FF92FD
:100350000F931F93CF93DF936C017B018B01040FED
:10036000151FEB015E01AE18BF08C017D10759F089
:100370006991D601ED91FC910190F081E02DC601CB
:100380000995892B79F7C501DF91CF911F910F91C5
:10039000FF90EF90DF90CF90BF90AF900895FC0159
:1003A000538D448D252F30E0842F90E0821B930BDA
:1003B000541710F0CF96089501970895FC01918D80
:1003C000828D981761F0A28DAE0FBF2FB11D5D9683
:1003D0008C91928D9F5F9F73928F90E008958FEF25
:1003E0009FEF0895FC01918D828D981731F0828DD9
:1003F000E80FF11D858D90E008958FEF9FEF089530
:10040000FC01918D228D892F90E0805C9F4F821B93
:1004100091098F739927089587E392E00E94000263
:1004200021E0892B09F420E0822F089580E090E0FC
:10043000892B29F00E940C0281110C940000089570
:10044000FC01A48DA80FB92FB11DA35ABF4F2C9149
:10045000848D90E001968F739927848FA689B78940
:100460002C93A089B1898C91837080648C93938D37
:10047000848D981306C00288F389E02D80818F7DDA
:1004800080830895EF92FF920F931F93CF93DF9392
:10049000EC0181E0888F9B8D8C8D98131AC0E889C0
:1004A000F989808185FF15C09FB7F894EE89FF898F
:1004B0006083E889F98980818370806480839FBF2D
:1004C00081E090E0DF91CF911F910F91FF90EF902D
:1004D0000895F62E0B8D10E00F5F1F4F0F7311273D
:1004E000E02E8C8D8E110CC00FB607FCFACFE88978
:1004F000F989808185FFF5CFCE010E942002F1CFDE
:10050000EB8DEC0FFD2FF11DE35AFF4FF0829FB7EB
:10051000F8940B8FEA89FB8980818062CFCFCF93DB
:10052000DF93EC01888D8823B9F0AA89BB89E8891B
:10053000F9898C9185FD03C0808186FD0DC00FB6C1
:1005400007FCF7CF8C9185FFF2CF808185FFEDCF3F
:10055000CE010E942002E9CFDF91CF91089590E073
:1005600080E00895FC01448155816081718184EDB2
:1005700092E00C94A201FC0101900020E9F7319770
:10058000AF01481B590BBC0187E392E00C94A20118
:10059000CF93DF930E94BB02EC0185E291E00E94C1
:1005A000BB028C0F9D1FDF91CF910895CF93DF93F6
:1005B00090E080E00E94E00CC3E3D2E0888381E019
:1005C00090E00E94E00C898382E090E00E94E00CC1
:1005D0008A8383E090E00E94E00C8B83CE01DF9160
:1005E000CF910895CF93DF93EC0160E08E810E945C
:1005F000DF0061E08E810E94DF0060E08E810E945A
:10060000DF008BE891E00197F1F7DF91CF9108953A
:10061000CF92DF92EF92FF920F931F93CF93DF93CE
:100620006C017C0187E0E80EF11CD0E0C0E0062FF1
:1006300010E0B8010C2E02C0759567950A94E2F798
:100640006170F70181917F010E94DF002196C43023
:10065000D10579F7C601DF91CF911F910F91FF90DE
:10066000EF90DF90CF900C94F202CF92DF92EF9256
:10067000FF920F931F93CF93DF93EC01F62E642F1D
:100680008C810E94DF008D818F3F19F060E00E9415
:10069000DF000F2D10E08F8584FF25C06E0187E0FD
:1006A000C80ED11CF12CE12CB8010E2C02C075959E
:1006B00067950A94E2F76170F60181916F010E94DB
:1006C000DF00FFEFEF1AFF0A88E0E816F10461F798
:1006D000CE01DF91CF911F910F91FF90EF90DF90AE
:1006E000CF900C94F202B80184E0759567958A95D5
:1006F000E1F7CE010E9408036F2DCE01DF91CF916B
:100700001F910F91FF90EF90DF90CF900C94080312
:1007100040E0682F84ED92E00C943503CF93DF9393
:10072000823029F49091E30298609093E3028093E1
:10073000E7021092E80280E48093E90280E180936E
:10074000EA0280E58093EB0261E08091D8020E948A
:100750000D018091D9028F3F19F061E00E940D01D7
:1007600061E08091DA020E940D01C4EDD2E09E01A9
:10077000245D32408091E30284FD0BC084E090E070
:1007800021962817390744F461E08E810E940D01FB
:10079000EECF88E090E0F4CF8BE39DE00197F1F796
:1007A00060E08091D8020E94DF0060E08091DA0270
:1007B0000E94DF008091D9028F3F19F060E00E9413
:1007C000DF008091E30284FD39C063E084ED92E0B4
:1007D0000E940803CBE4D6E4CE010197F1F763E071
:1007E00084ED92E00E9408032197F1F763E084ED25
:1007F00092E00E94080383E592E00197F1F762E03E
:1008000084ED92E00E9408038091E30280620E94DE
:10081000880384E08093E4028CE00E94880381E0F6
:100820000E9488038BE39FE10197F1F782E08093B8
:10083000E50286E0DF91CF910C94880380620E94EC
:1008400088038BE496E40197F1F78091E3028062DC
:100850000E94880383E592E00197F1F78091E3021B
:1008600080620E948803D0CF643008F063E09091EA
:10087000E702691710F06FEF690FE62FF0E0EC5216
:10088000FD4F9489890F80680C94880381E00E9451
:1008900088038BE39FE10197F1F7089541E00E94FF
:1008A000350381E090E008950F931F93CF93DF937A
:1008B000EC0188819981009759F02A813B812617A4
:1008C000370730F081E0DF91CF911F910F910895AC
:1008D0008B016F5F7F4F0E947A0E009759F09983CA
:1008E00088831B830A832C813D81232B59F7FC01CC
:1008F0001082E8CF80E0E7CFCF93DF93EC018881CF
:100900009981009711F00E94F10D198218821D82C1
:100910001C821B821A82DF91CF910895FC01808195
:100920009181009711F00C94F10D0895EF92FF92D0
:100930000F931F93CF93DF93EC017B0119821882F1
:100940001B821A821D821C82FB0101900020E9F7A4
:1009500031978F01061B170BB8010E9454048111B7
:1009600009C0CE01DF91CF911F910F91FF90EF90C1
:100970000C947C041D830C83B70188819981DF91DD
:10098000CF911F910F91FF90EF900C94400FEF9239
:10099000FF920F931F93CF93DF9300D000D000D02E
:1009A000CDB7DEB77C01862F642F70E090E00E9407
:1009B00034041A8219821C821B821E821D82F70156
:1009C000008111810115110569F0E480F580B701FE
:1009D000CE0101960E945404811119C0CE010196E6
:1009E0000E947C04CE0101960E94B202CE010196C3
:1009F0000E948E0426960FB6F894DEBF0FBECDBFC0
:100A0000DF91CF911F910F91FF90EF900895FE829B
:100A1000ED82B80189819A810E94400FE3CFCF9285
:100A2000DF92EF92FF920F931F93CF93DF93CDB797
:100A3000DEB763970FB6F894DEBF0FBECDBF6B0174
:100A40007C0167E271E0CE010E960E949604C70118
:100A5000B6012CE330E040E050E00E942D0D7F9382
:100A60006F933F932F9388E291E09F938F938E0132
:100A70000F5F1F4F1F930F930E94470FB801CE01C6
:100A800008960E9496048E859F850FB6F894DEBF67
:100A90000FBECDBF009709F455C0688579856115F3
:100AA000710509F44DC0488959892C853D85421747
:100AB000530708F445C00E94400F8C859D859B8B91
:100AC0008A8B1D861C86CE0108960E948E0470E0DB
:100AD00060E085E090E00E943404198618861B8649
:100AE0001A861D861C860E851F850115110569F065
:100AF000EA88FB88B701CE0108960E945404811150
:100B000032C0CE0108960E947C04CE0108960E9455
:100B1000B202CE0108960E948E04CE010E960E946B
:100B20008E0463960FB6F894DEBF0FBECDBFDF9183
:100B3000CF911F910F91FF90EF90DF90CF9008958C
:100B40000E94F10D888599859F878E878A859B8570
:100B5000998B888B8C859D859B8B8A8B19861886B3
:100B60001B861A86AECFFD86EC86B80188859985EE
:100B70000E94400FCACFDF92EF92FF920F931F9314
:100B8000CF93DF9300D000D000D0CDB7DEB78C017B
:100B900080913102909132028230910509F451C264
:100BA00040F40097F9F0019709F4E1C181E090E089
:100BB0003AC28330910509F4E7C20497B9F7F80106
:100BC0008081863009F40AC3873009F4CFC08230AF
:100BD00069F7809113028F5F8E3109F412C38093FD
:100BE0001302E4CFF8018081833009F4DCC0C0F443
:100BF000882309F4BEC08230C9F685E591E00E94E1
:100C0000C802F8018181853089F680910001813127
:100C100009F4D4C08F3F09F4FBC090E080E003C228
:100C2000863009F469C0873009F49CC0853009F02A
:100C3000BDCF0E94460470E060E081E090E00E9439
:100C400034046FE571E0CE0101960E949604CE0156
:100C500001960E94B202CE0101960E948E0461E0CC
:100C600070E084E090E00E9434046FE671E0CE0111
:100C700001960E949604CE0101960E94B202CE0116
:100C800001960E948E0490E080E00E94E00C882390
:100C900029F060E090E080E00E94E80C81E090E0C4
:100CA0000E94E00C882329F060E081E090E00E943F
:100CB000E80C0E94D6028091330290913402A091F8
:100CC0003502B091360280932D0290932E02A093AC
:100CD0002F02B093300287E791E00E94C802109281
:100CE00032021092310260ED77E080E090E00E94E5
:100CF000630182E090E097C11092250210922602D3
:100D000010922702109228021092290210922A02B1
:100D100010922B0210922C0260E070E0CB010E9436
:100D20000F0562E371E0CE0101960E94960440E057
:100D300060E0CE0101960E94C704CE0101960E9498
:100D40008E046EEC71E0CE0101960E94960441E0A3
:100D500060E0CE0101960E94C704CE0101960E9478
:100D60008E045BCF86E391E00E94C8020E94460495
:100D700054CF80E491E00E94C802809125029091B6
:100D80002602A0912702B0912802CC96A11DB11D88
:100D90008093250290932602A0932702B093280205
:100DA00081E090E006C089E491E00E94C80284E0FE
:100DB00090E090933202809331029BCFE2ECF0E01E
:100DC000149117FD2ACF61E081E10E940D011123EA
:100DD00009F48DC0123009F0A2C08091B100887F63
:100DE00082608093B10089EF8093B30088EC90E03B
:100DF000A0E0B0E08093190290931A02A0931B0226
:100E0000B0931C028091700082608093700005CFC7
:100E100081E180930001E2ECF0E014911F3F09F4BE
:100E2000FCCE113021F150F0123009F43EC017FD14
:100E3000F4CE61E081E10E940D01CCCF14BC15BC61
:100E400084B5826084BD85B5816085BDEFEBF0E03F
:100E5000E491F0E0EE0FFF1FEC55FF4F8591949168
:100E6000E1EAF0E0E491E093180210E0ACCF1092D8
:100E700080001092810080918100886080938100C1
:100E800080918100816080938100EFEBF0E0E4913C
:100E9000F0E0EE0FFF1FEC55FF4F85919491E1EAD2
:100EA000F0E0E491E09317028ECF1092B000109220
:100EB000B1008091B00082608093B0008091B10059
:100EC00081608093B100EFEBF0E0E491F0E0EE0F91
:100ED000FF1FEC55FF4F85919491909316028093DC
:100EE0001502E1EAF0E0E491E09314026CCF85B5DD
:100EF000887F826085BD89EF87BD88EC90E0A0E0A7
:100F0000B0E08093210290932202A0932302B09339
:100F1000240280916E00826080936E007ECE11303C
:100F2000F1F480918100887F8160809381008FEC53
:100F300097E0909389008093880088EC90E0A0E08F
:100F4000B0E080931D0290931E02A0931F02B09305
:100F5000200280916F00826080936F005ECE12301D
:100F600021F011115ACE8FECC7CF8FEC3DCFF80195
:100F70008081833009F444C0D0F4882361F181304A
:100F800009F014CE8091250290912602A0912702AB
:100F9000B09128028C339105A105B10508F406CE65
:100FA000BC01CD016C5371098109910920C08630C3
:100FB00039F0873009F4DACE843009F0F7CD93C0E8
:100FC000609125027091260280912702909128025B
:100FD0000E940F0522CE6091250270912602809119
:100FE000270290912802645C7F4F8F4F9F4F609340
:100FF0002502709326028093270290932802E8CF5F
:101000008091250290912602A0912702B09128029A
:10101000CC97A105B10508F4C9CD82E090E090938A
:1010200032028093310226960FB6F894DEBF0FBECF
:10103000CDBFDF91CF911F910F91FF90EF90DF9087
:101040000895F8018081833009F49BC008F050C0F6
:10105000823009F0ABCD8FE791E00E94C802F80121
:1010600081818A3009F0A2CD81E891E00E94C80216
:1010700060912502709126028091270290912802AA
:1010800061507109810991096093250270932602CC
:1010900080932702909328020091290210912A023E
:1010A00020912B0230912C020F5F1F4F2F4F3F4F8B
:1010B0000093290210932A0220932B0230932C02D2
:1010C0000E940F058091250290912602A09127028F
:1010D000B0912802892B8A2B8B2B09F09ECD85E8B5
:1010E00091E00E94C802109232021092310201CEA9
:1010F0008430C9F3873009F059CD80912D02909149
:101100002E02A0912F02B0913002409129025091FD
:101110002A0260912B0270912C02840F951FA61F4A
:10112000B71F80932D0290932E02A0932F02B093AD
:1011300030021092290210922A0210922B02109271
:101140002C028093330290933402A0933502B09323
:10115000360283E3E82E82E0F82E10E000E0F7018B
:10116000D1907F01C8010E94E00CD81621F06D2DAE
:10117000C8010E94E80C0F5F1F4F0430110579F77A
:101180004CCD83E090E015CEF8018081833009F4E6
:1011900044CFC0F4882309F4F0CD813009F006CDA6
:1011A0008091250290912602A0912702B0912802F9
:1011B0008C339105A105B10508F4F8CCCC97A109B1
:1011C000B109E6CD863009F0F4CE6CE871E0CE01CD
:1011D00001960E94960441E065E0BBCD60912D022E
:1011E00070912E0280912F02909130020E940F0583
:1011F0006FE571E0CE0101960E94960441E061E046
:10120000A8CD109213026FCFEF92FF920F931F930E
:10121000CF93DF931F92CDB7DEB7E0903102F0900D
:1012200032020E94BB050297C1F400913102109175
:10123000320287E08983F0923202E0923102CE01DD
:1012400001960E94BB0586E08983109332020093C9
:101250003102CE0101960E94BB050F90DF91CF9124
:101260001F910F91FF90EF9008951F920F920FB66C
:101270000F9211242F933F938F939F93AF93BF931C
:1012800080910B0290910C02A0910D02B0910E0280
:1012900030910A0223E0230F2D3758F50196A11D46
:1012A000B11D20930A0280930B0290930C02A0932D
:1012B0000D02B0930E0280910F0290911002A09146
:1012C0001102B09112020196A11DB11D80930F026F
:1012D00090931002A0931102B0931202BF91AF91AC
:1012E0009F918F913F912F910F900FBE0F901F9064
:1012F000189526E8230F0296A11DB11DD2CF1F928B
:101300000F920FB60F9211242F933F934F935F9339
:101310006F937F938F939F93AF93BF93EF93FF93BD
:101320008091190290911A02A0911B02B0911C02A7
:10133000892B8A2B8B2BD1F190911402E09115020D
:10134000F091160280818927808380911902909103
:101350001A02A0911B02B0911C02181619061A0657
:101360001B069CF48091190290911A02A0911B0215
:10137000B0911C020197A109B109809319029093C1
:101380001A02A0931B02B0931C02FF91EF91BF9130
:10139000AF919F918F917F916F915F914F913F910D
:1013A0002F910F900FBE0F901F9018958091000104
:1013B000E2ECF0E0E4919FEF90930001E13051F016
:1013C00030F0E23069F060E00E94DF00DECF109282
:1013D0006E00F9CF90916F009D7F90936F00F3CFD7
:1013E000909170009D7F9093700091E09093B00079
:1013F0009091B100987F94609093B1001092B300E7
:10140000E2CF1F920F920FB60F9211242F933F93AA
:101410004F935F936F937F938F939F93AF93BF93FC
:10142000EF93FF9387E392E00E942002FF91EF91F8
:10143000BF91AF919F918F917F916F915F914F91EC
:101440003F912F910F900FBE0F901F9018951F92F4
:101450000F920FB60F9211242F938F939F93EF93B8
:10146000FF93E0914702F09148028081E0914D02A4
:10147000F0914E0282FD1BC09081809150028F5FDF
:101480008F7320915102821741F0E0915002F0E0F9
:10149000E95CFD4F958F80935002FF91EF919F91F2
:1014A0008F912F910F900FBE0F901F9018958081F4
:1014B000F4CFE7E3F2E01382128288EE93E0A0E03B
:1014C000B0E084839583A683B7838BE091E091831A
:1014D000808385EC90E09587848784EC90E0978703
:1014E000868780EC90E0918B808B81EC90E0938BF1
:1014F000828B82EC90E0958B848B86EC90E0978BCE
:10150000868B118E128E138E148EE4EDF2E0138210
:1015100012828DE191E09183808385E0848386E06F
:10152000858387E0868388E0878389E080878AE0F7
:1015300081878BE082871386148615861686178628
:1015400081E00C948E03CF93DF93CDB7DEB7A297E3
:101550000FB6F894DEBF0FBECDBF789484B582601D
:1015600084BD84B5816084BD85B5826085BD85B547
:10157000816085BD80916E00816080936E001092C5
:101580008100809181008260809381008091810040
:1015900081608093810080918000816080938000D1
:1015A0008091B10084608093B1008091B00081602F
:1015B0008093B00080917A00846080937A0080915B
:1015C0007A00826080937A0080917A0081608093B3
:1015D0007A0080917A00806880937A001092C1002E
:1015E000E0914702F091480282E08083E09143025B
:1015F000F09144021082E0914502F091460280E1B0
:10160000808310924F02E0914B02F0914C0216E061
:101610001083E0914902F0914A02808180618083C9
:10162000E0914902F0914A02808188608083E091D4
:101630004902F0914A02808180688083E0914902EA
:10164000F0914A0280818F7D808382E00E948E0328
:101650000E9446048091E502982F92609093E502E3
:1016600086600E94880370E060E090E080E00E9465
:1016700034048091E5028E7F8093E50284600E94AD
:1016800088038091E4028D7F8093E40288600E9449
:10169000880383E991E00E94C80280EB91E00E94F8
:1016A000C8020E94460470E060E090E080E00E9482
:1016B000340463EC71E0CE0101960E949604CE01E1
:1016C00001960E94B202CE0101960E948E0461E052
:1016D00070E084E090E00E94340463ED71E0CE019C
:1016E00001960E949604CE0101960E94B202CE019C
:1016F00001960E948E0464E175E080E090E00E9413
:1017000063010E94460470E060E082E090E00E9485
:1017100034046BED71E0CE0101960E949604CE0177
:1017200001960E94B202CE0101960E948E0461E0F1
:1017300070E084E090E00E94340467EE71E0CE0136
:1017400001960E949604CE0101960E94B202CE013B
:1017500001960E948E0464E175E080E090E00E94B2
:1017600063010E94460460E08EE00E940D0160E08B
:101770008FE00E940D0160E080E10E940D0161E0B8
:1017800081E10E940D011983109232021092310200
:1017900010922D0210922E0210922F0210923002FF
:1017A0000E94D6028091330290913402A0913502BA
:1017B000B091360280932D0290932E02A0932F02B7
:1017C000B0933002CE0101960E94BB052AE0422E62
:1017D000512C612C712C30E0C32E30E0D32E11E05F
:1017E00042E0A42EB12C88248394912C83E0382EDF
:1017F00092E0292E8091020281110CC00E94950175
:101800006093FE017093FF018093000290930102A8
:10181000109302028EE00E94B600F82E8FE00E9424
:10182000B600E82E80E10E94B6009F2D990F990F17
:10183000FE2CFF0CF92A0F2D082B8091F401811149
:101840000CC00E9495016093F0017093F1018093A8
:10185000F2019093F3011093F4018091EE019091C5
:10186000EF018130910509F46DC008F459C0029769
:1018700009F48FC00E9495012091FE013091FF0173
:101880004091000250910102621B730B840B950B77
:101890006436710581059105B8F10E9495019B019F
:1018A000AC012093FE013093FF014093000250935E
:1018B000010219A27E01E1E2EE0EF11CCA01B9019A
:1018C000A30192010E942D0D605DF70162937F01DB
:1018D000211531054105510589F7309719F0CF01E0
:1018E0000E94BB0285E291E00E94BB022092FC01B3
:1018F0008091FD018F5F8B3008F05FC08093FD0108
:101900008CEF91E00E940409C114D10409F472CF54
:101910000E940C02882309F469CF0E94000066CF60
:10192000002309F4A7CF9092EF018092EE010E946C
:1019300095016093F0017093F1018093F20190930F
:10194000F30198CF0E9495012091F0013091F101AF
:101950004091F2015091F301621B730B840B950BC4
:10196000623371058105910508F484CF002361F08D
:10197000B092EF01A092EE01043071F41AA2CE01F0
:1019800082960E94040976CF1092EF011092EE0128
:1019900071CF01116FCFC7CF023011F41AA3EFCF6F
:1019A000013011F43AA2EBCF063019F484E08AA397
:1019B000E6CF053021F70AA3E2CF1093FD01A0CFB7
:1019C000F999FECF92BD81BDF89A992780B5089507
:1019D000262FF999FECF1FBA92BD81BD20BD0FB64B
:1019E000F894FA9AF99A0FBE019608952F923F92B1
:1019F0004F925F926F927F928F929F92AF92BF921F
:101A0000CF92DF92EF92FF920F931F93CF93DF93CA
:101A1000CDB7DEB7CA1BDB0B0FB6F894DEBF0FBE27
:101A2000CDBF09942A88398848885F846E847D8474
:101A30008C849B84AA84B984C884DF80EE80FD8076
:101A40000C811B81AA81B981CE0FD11D0FB6F894EC
:101A5000DEBF0FBECDBFED010895A1E21A2EAA1B75
:101A6000BB1BFD010DC0AA1FBB1FEE1FFF1FA2174E
:101A7000B307E407F50720F0A21BB30BE40BF50B4B
:101A8000661F771F881F991F1A9469F760957095D4
:101A9000809590959B01AC01BD01CF010895EE0F9B
:101AA000FF1F0590F491E02D09940F931F93CF939E
:101AB000DF938230910510F482E090E0E091EE0235
:101AC000F091EF0230E020E0B0E0A0E0309799F430
:101AD0002115310509F44AC0281B390B2430310582
:101AE000D8F58A819B816115710589F1FB0193838A
:101AF0008283FE0111C04081518102811381481708
:101B00005907E0F04817590799F4109761F01296B9
:101B10000C93129713961C933296CF01DF91CF91BD
:101B20001F910F9108950093EE021093EF02F4CFEE
:101B30002115310551F04217530738F0A901DB0197
:101B40009A01BD01DF01F801C1CFEF01F9CF9093F8
:101B5000EF028093EE02CDCFFE01E20FF31F8193DF
:101B600091932250310939832883D7CF2091EC02F9
:101B70003091ED02232B41F42091030130910401B7
:101B80003093ED022093EC0220910101309102018B
:101B90002115310541F42DB73EB740910501509113
:101BA0000601241B350BE091EC02F091ED02E217E7
:101BB000F307A0F42E1B3F0B2817390778F0AC0170
:101BC0004E5F5F4F2417350748F04E0F5F1F50934D
:101BD000ED024093EC02819391939FCFF0E0E0E01F
:101BE0009CCFCF93DF930097E9F0FC0132971382EB
:101BF0001282A091EE02B091EF02ED0130E020E000
:101C00001097A1F420813181820F931F2091EC0263
:101C10003091ED022817390709F061C0F093ED0209
:101C2000E093EC02DF91CF910895EA01CE17DF0730
:101C3000E8F54A815B819E0141155105B1F7E90143
:101C4000FB83EA8349915991C40FD51FEC17FD0717
:101C500061F4808191810296840F951FE901998337
:101C60008883828193819B838A83F0E0E0E01296EF
:101C70008D919C9113970097B9F52D913C911197F7
:101C8000CD010296820F931F2091EC023091ED025C
:101C90002817390739F6309751F51092EF02109254
:101CA000EE02B093ED02A093EC02BCCFD383C283CB
:101CB00040815181840F951FC817D90761F44E5F89
:101CC0005F4F88819981480F591F518340838A81D2
:101CD0009B81938382832115310509F0B0CFF09366
:101CE000EF02E093EE029ECFFD01DC01C0CF138234
:101CF0001282D7CFB0E0A0E0E0E8FEE00C94F80C50
:101D00008C01009751F4CB010E94550D8C01C80144
:101D1000CDB7DEB7E0E10C94140DFC01E60FF71F20
:101D20009C0122503109E217F30708F49DC0D90144
:101D3000CD91DC911197C617D70798F0C530D10522
:101D400030F3CE0104978617970708F3C61BD70B0D
:101D50002297C193D1936D937C93CF010E94F10D93
:101D6000D6CF5B01AC1ABD0A4C018C0E9D1EA09112
:101D7000EE02B091EF02512C412CF12CE12C109786
:101D800031F58091EC029091ED028815990509F0EA
:101D90005CC04616570608F058C08091010190912A
:101DA0000201009741F48DB79EB740910501509113
:101DB0000601841B950BE817F90708F055C0F0934E
:101DC000ED02E093EC02F90171836083A0CF8D9165
:101DD0009C91119712966C90129713967C90139782
:101DE000A815B90559F56C0142E0C40ED11CCA14FE
:101DF000DB0420F1AC014A195B09DA011296159750
:101E000080F06282738251834083D9016D937C9309
:101E1000E114F10471F0D7011396FC93EE9312973D
:101E200076CF22968C0F9D1FF90191838083F30159
:101E3000EFCFF093EF02E093EE0269CF4816590618
:101E400008F42C017D01D3019ACFCB010E94550DDE
:101E50007C01009749F0AE01B8010E94370FC8011C
:101E60000E94F10D870153CF10E000E050CFFB013D
:101E7000DC0102C001900D9241505040D8F7089506
:101E8000FB01DC0101900D920020E1F70895AEE026
:101E9000B0E0EDE4FFE00C94040D0D891E8986E0AE
:101EA0008C831A8309838FEF9FE79E838D83AE0116
:101EB000475E5F4F6F89788DCE0101960E946A0F51
:101EC0002F813885020F131FF80110822E96E4E04F
:101ED0000C94200DABE0B0E0E0E7FFE00C94F60CD2
:101EE0007C013B018A01FC0117821682838181FFFC
:101EF000C8C1CE0101965C01F7019381F30193FD06
:101F0000859193FF81913F01882309F453C1853264
:101F100039F493FD859193FF81913F01853229F436
:101F2000B70190E00E945A11E7CF912C212C312C5F
:101F3000FFE1F31538F08B3211F190F4803209F1A2
:101F4000833229F137FC3CC020ED280F2A3050F5B0
:101F500036FE20C08AE0989E200D1124922E06C0E5
:101F60008D3291F0803371F7689430F8F30193FD6E
:101F7000859193FF81913F018111DACF21C068944F
:101F800031F8689432F8F2CF689433F8EFCF689460
:101F900034F8ECCFEAE02E9E200D1124222E689416
:101FA00035F8E4CF8E3229F436FC04C1689436F853
:101FB000DDCF8C3619F4689437F8D8CF8836B1F273
:101FC000982F9F7D95549330E0F08336A1F18337AD
:101FD000C1F1833509F063C02801F2E04F0E511CB6
:101FE000F801C080D180692D70E036FC02C06FEF2F
:101FF0007FEFC6010E9444114C01689437F88201BA
:102000000AC00C5F1F4FFFE3F98388248394912C4F
:102010006501E89437F833FE2DC0522C81149104E9
:1020200071F5552009F468CFB70180E290E00E9475
:102030005A115A94F6CFF801808189830E5F1F4FA1
:10204000E4CF2801F2E04F0E511CF801C080D1808E
:10205000692D70E036FC02C06FEF7FEFC6010E9471
:102060004F114C018201D5CFB70180E290E00E9470
:102070005A112A942814190409F0B0F7CECFF601AA
:1020800037FC859137FE81916F01B70190E00E9486
:102090005A1151105A94F1E08F1A9108BFCF84362B
:1020A00019F0893609F077C0F80137FE6BC06081FE
:1020B0007181828193810C5F1F4FF32DFF763F2E3C
:1020C00097FF09C090958095709561957F4F8F4FD0
:1020D0009F4F689437F82AE030E0A5010E948A11EA
:1020E000C82ECA188C2C432C36FE0CC0E89440F83D
:1020F000C91440F434FE05C032FC03C0F32DFE7E4B
:102100004F2E892C44FE95C0FE01EC0DF11D8081FF
:10211000803309F087C0242D297E422E842D8870BB
:10212000582E43FC95C040FE8FC09C2C821418F49E
:102130002C0C922C981844FE91C0B70180E390E0DB
:102140000E945A1142FE09C088E790E041FE02C099
:1021500088E590E0B7010E945A11C91408F48AC0BA
:10216000CA94D12C9FEFC91AD90ACA0CDB1CF601FC
:1021700082916F01B70190E00E945A11AC14BD0426
:10218000B1F74FCF60817181072E000C880B990B3E
:102190000E5F1F4F92CFD32CE894D4F82AE030E0A2
:1021A000853739F1232D297FD22E8F3601F148F45E
:1021B0008835A9F0F701868197812B96E2E10C948E
:1021C000120D803749F08837A9F7D4FE02C0689411
:1021D000D2F820E130E00DC06894D4F8F6CF34FE98
:1021E00003C0822F8660D82E20E132E002C028E0B2
:1021F00030E0F801D7FE0FC0608171818281938148
:102200000C5F1F4FA5010E948A11C82ECA183D2CD1
:10221000E89437F867CF6081718190E080E00E5FCD
:102220001F4FF0CF42FC02C0839478CF83948394F5
:1022300075CF842D867809F471CFF6CFB70180E28F
:1022400090E00E945A1183948214C0F3512C73CFF2
:10225000522C5818821408F46ECFF8CF842D86784B
:1022600009F47BCF8BE241FE80E247FC8DE2B701AF
:1022700090E071CFB70180E390E00E945A119A94E8
:102280006CCF8FEF9FEF99CFFC01059061507040AC
:102290000110D8F7809590958E0F9F1F0895FC012F
:1022A0006150704001900110D8F7809590958E0F85
:1022B0009F1F08950F931F93CF93DF93182F092F1C
:1022C000EB018B8181FD09C01FEF0FEF812F902F54
:1022D000DF91CF911F910F91089582FF14C02E813D
:1022E0003F818C819D81281739073CF4E881F98171
:1022F000CF0101969983888310838E819F810196F7
:102300009F838E83E3CFE885F985812F0995892BFB
:10231000A1F3DACFFA01AA27283051F1203181F157
:10232000E8946F936E7F6E5F7F4F8F4F9F4FAF4FDD
:10233000B1E03ED0B4E03CD0670F781F891F9A1FF0
:10234000A11D680F791F8A1F911DA11D6A0F711DA4
:10235000811D911DA11D20D009F468943F912AE0B0
:10236000269F11243019305D3193DEF6CF01089598
:10237000462F4770405D4193B3E00FD0C9F7F6CFC9
:10238000462F4F70405D4A3318F0495D31FD405291
:10239000419302D0A9F7EACFB4E0A6959795879527
:1023A00077956795BA95C9F7009761057105089506
:1023B0009B01AC010A2E06945795479537952795B2
:1023C000BA95C9F7620F731F841F951FA01D08954A
:0423D000F894FFCFAF
:1023D400FF0000F0028000000000004202A201CFD2
:1023E400018F020002DE01F201000000004E04A28F
:1023F40001AF02A1010D0A00253033643A253032C1
:1024040064005365740049646C655F6578697400A1
:10241400494E435F74696D650073746172745F70D3
:10242400617573650074696D655F7469636B0050F1
:10243400726F647563746976652074696D650045AF
:1024440072617365642100636C6561726564007711
:10245400006F6F6F004D4D4D4D4D4D0050617573C4
:1024640065640050726F647563746976652074697D
:102474006D6572206170706C69636174696F6E0060
:102484003D3D3D3D3D3D3D3D3D3D3D3D3D3D3D3D78
:102494003D3D0050726F64756374697665205469BC
:1024A4006D6500547261636B65720044657369679E
:0E24B4006E65642042790047617572617600A2
:00000001FF
